{
	"contracts/SimpleStorage.sol": {
		"SimpleStorage": {
			"abi": [
				{
					"inputs": [
						{
							"internalType": "uint256",
							"name": "_favoriteNumber",
							"type": "uint256"
						},
						{
							"internalType": "string",
							"name": "_name",
							"type": "string"
						}
					],
					"name": "addPerson",
					"outputs": [],
					"stateMutability": "nonpayable",
					"type": "function"
				},
				{
					"inputs": [],
					"name": "favoriteNumber",
					"outputs": [
						{
							"internalType": "uint256",
							"name": "",
							"type": "uint256"
						}
					],
					"stateMutability": "view",
					"type": "function"
				},
				{
					"inputs": [
						{
							"internalType": "string",
							"name": "",
							"type": "string"
						}
					],
					"name": "nameToFavoriteNumber",
					"outputs": [
						{
							"internalType": "uint256",
							"name": "",
							"type": "uint256"
						}
					],
					"stateMutability": "view",
					"type": "function"
				},
				{
					"inputs": [
						{
							"internalType": "uint256",
							"name": "",
							"type": "uint256"
						}
					],
					"name": "people",
					"outputs": [
						{
							"internalType": "uint256",
							"name": "favoriteNumber",
							"type": "uint256"
						},
						{
							"internalType": "string",
							"name": "name",
							"type": "string"
						}
					],
					"stateMutability": "view",
					"type": "function"
				},
				{
					"inputs": [],
					"name": "person",
					"outputs": [
						{
							"internalType": "uint256",
							"name": "favoriteNumber",
							"type": "uint256"
						},
						{
							"internalType": "string",
							"name": "name",
							"type": "string"
						}
					],
					"stateMutability": "view",
					"type": "function"
				},
				{
					"inputs": [],
					"name": "retrieve",
					"outputs": [
						{
							"internalType": "uint256",
							"name": "",
							"type": "uint256"
						}
					],
					"stateMutability": "view",
					"type": "function"
				},
				{
					"inputs": [
						{
							"internalType": "uint256",
							"name": "_favoriteNumber",
							"type": "uint256"
						}
					],
					"name": "store",
					"outputs": [],
					"stateMutability": "nonpayable",
					"type": "function"
				}
			],
			"devdoc": {
				"kind": "dev",
				"methods": {},
				"version": 1
			},
			"evm": {
				"assembly": "    /* \"contracts/SimpleStorage.sol\":153:1785  contract SimpleStorage {... */\n  mstore(0x40, 0x80)\n    /* \"contracts/SimpleStorage.sol\":687:727  People({favoriteNumber: 2, name: 'Pat'}) */\n  mload(0x40)\n  dup1\n  0x40\n  add\n  0x40\n  mstore\n  dup1\n    /* \"contracts/SimpleStorage.sol\":711:712  2 */\n  0x02\n    /* \"contracts/SimpleStorage.sol\":687:727  People({favoriteNumber: 2, name: 'Pat'}) */\n  dup2\n  mstore\n  0x20\n  add\n  mload(0x40)\n  dup1\n  0x40\n  add\n  0x40\n  mstore\n  dup1\n  0x03\n  dup2\n  mstore\n  0x20\n  add\n  0x5061740000000000000000000000000000000000000000000000000000000000\n  dup2\n  mstore\n  pop\n  dup2\n  mstore\n  pop\n    /* \"contracts/SimpleStorage.sol\":664:727  People public person = People({favoriteNumber: 2, name: 'Pat'}) */\n  0x02\n  0x00\n  dup3\n  add\n  mload\n  dup2\n  0x00\n  add\n  sstore\n  0x20\n  dup3\n  add\n  mload\n  dup2\n  0x01\n  add\n  swap1\n  dup2\n  tag_1\n  swap2\n  swap1\n  tag_2\n  jump\t// in\ntag_1:\n  pop\n  pop\n  pop\n    /* \"contracts/SimpleStorage.sol\":153:1785  contract SimpleStorage {... */\n  callvalue\n  dup1\n  iszero\n  tag_3\n  jumpi\n  0x00\n  dup1\n  revert\ntag_3:\n  pop\n  jump(tag_4)\n    /* \"#utility.yul\":7:106   */\ntag_5:\n    /* \"#utility.yul\":59:65   */\n  0x00\n    /* \"#utility.yul\":93:98   */\n  dup2\n    /* \"#utility.yul\":87:99   */\n  mload\n    /* \"#utility.yul\":77:99   */\n  swap1\n  pop\n    /* \"#utility.yul\":7:106   */\n  swap2\n  swap1\n  pop\n  jump\t// out\n    /* \"#utility.yul\":112:292   */\ntag_6:\n    /* \"#utility.yul\":160:237   */\n  0x4e487b7100000000000000000000000000000000000000000000000000000000\n    /* \"#utility.yul\":157:158   */\n  0x00\n    /* \"#utility.yul\":150:238   */\n  mstore\n    /* \"#utility.yul\":257:261   */\n  0x41\n    /* \"#utility.yul\":254:255   */\n  0x04\n    /* \"#utility.yul\":247:262   */\n  mstore\n    /* \"#utility.yul\":281:285   */\n  0x24\n    /* \"#utility.yul\":278:279   */\n  0x00\n    /* \"#utility.yul\":271:286   */\n  revert\n    /* \"#utility.yul\":298:478   */\ntag_7:\n    /* \"#utility.yul\":346:423   */\n  0x4e487b7100000000000000000000000000000000000000000000000000000000\n    /* \"#utility.yul\":343:344   */\n  0x00\n    /* \"#utility.yul\":336:424   */\n  mstore\n    /* \"#utility.yul\":443:447   */\n  0x22\n    /* \"#utility.yul\":440:441   */\n  0x04\n    /* \"#utility.yul\":433:448   */\n  mstore\n    /* \"#utility.yul\":467:471   */\n  0x24\n    /* \"#utility.yul\":464:465   */\n  0x00\n    /* \"#utility.yul\":457:472   */\n  revert\n    /* \"#utility.yul\":484:804   */\ntag_8:\n    /* \"#utility.yul\":528:534   */\n  0x00\n    /* \"#utility.yul\":565:566   */\n  0x02\n    /* \"#utility.yul\":559:563   */\n  dup3\n    /* \"#utility.yul\":555:567   */\n  div\n    /* \"#utility.yul\":545:567   */\n  swap1\n  pop\n    /* \"#utility.yul\":612:613   */\n  0x01\n    /* \"#utility.yul\":606:610   */\n  dup3\n    /* \"#utility.yul\":602:614   */\n  and\n    /* \"#utility.yul\":633:651   */\n  dup1\n    /* \"#utility.yul\":623:704   */\n  tag_30\n  jumpi\n    /* \"#utility.yul\":689:693   */\n  0x7f\n    /* \"#utility.yul\":681:687   */\n  dup3\n    /* \"#utility.yul\":677:694   */\n  and\n    /* \"#utility.yul\":667:694   */\n  swap2\n  pop\n    /* \"#utility.yul\":623:704   */\ntag_30:\n    /* \"#utility.yul\":751:753   */\n  0x20\n    /* \"#utility.yul\":743:749   */\n  dup3\n    /* \"#utility.yul\":740:754   */\n  lt\n    /* \"#utility.yul\":720:738   */\n  dup2\n    /* \"#utility.yul\":717:755   */\n  sub\n    /* \"#utility.yul\":714:798   */\n  tag_31\n  jumpi\n    /* \"#utility.yul\":770:788   */\n  tag_32\n  tag_7\n  jump\t// in\ntag_32:\n    /* \"#utility.yul\":714:798   */\ntag_31:\n    /* \"#utility.yul\":535:804   */\n  pop\n    /* \"#utility.yul\":484:804   */\n  swap2\n  swap1\n  pop\n  jump\t// out\n    /* \"#utility.yul\":810:951   */\ntag_9:\n    /* \"#utility.yul\":859:863   */\n  0x00\n    /* \"#utility.yul\":882:885   */\n  dup2\n    /* \"#utility.yul\":874:885   */\n  swap1\n  pop\n    /* \"#utility.yul\":905:908   */\n  dup2\n    /* \"#utility.yul\":902:903   */\n  0x00\n    /* \"#utility.yul\":895:909   */\n  mstore\n    /* \"#utility.yul\":939:943   */\n  0x20\n    /* \"#utility.yul\":936:937   */\n  0x00\n    /* \"#utility.yul\":926:944   */\n  keccak256\n    /* \"#utility.yul\":918:944   */\n  swap1\n  pop\n    /* \"#utility.yul\":810:951   */\n  swap2\n  swap1\n  pop\n  jump\t// out\n    /* \"#utility.yul\":957:1050   */\ntag_10:\n    /* \"#utility.yul\":994:1000   */\n  0x00\n    /* \"#utility.yul\":1041:1043   */\n  0x20\n    /* \"#utility.yul\":1036:1038   */\n  0x1f\n    /* \"#utility.yul\":1029:1034   */\n  dup4\n    /* \"#utility.yul\":1025:1039   */\n  add\n    /* \"#utility.yul\":1021:1044   */\n  div\n    /* \"#utility.yul\":1011:1044   */\n  swap1\n  pop\n    /* \"#utility.yul\":957:1050   */\n  swap2\n  swap1\n  pop\n  jump\t// out\n    /* \"#utility.yul\":1056:1163   */\ntag_11:\n    /* \"#utility.yul\":1100:1108   */\n  0x00\n    /* \"#utility.yul\":1150:1155   */\n  dup3\n    /* \"#utility.yul\":1144:1148   */\n  dup3\n    /* \"#utility.yul\":1140:1156   */\n  shl\n    /* \"#utility.yul\":1119:1156   */\n  swap1\n  pop\n    /* \"#utility.yul\":1056:1163   */\n  swap3\n  swap2\n  pop\n  pop\n  jump\t// out\n    /* \"#utility.yul\":1169:1562   */\ntag_12:\n    /* \"#utility.yul\":1238:1244   */\n  0x00\n    /* \"#utility.yul\":1288:1289   */\n  0x08\n    /* \"#utility.yul\":1276:1286   */\n  dup4\n    /* \"#utility.yul\":1272:1290   */\n  mul\n    /* \"#utility.yul\":1311:1408   */\n  tag_37\n    /* \"#utility.yul\":1341:1407   */\n  0xffffffffffffffffffffffffffffffffffffffffffffffffffffffffffffffff\n    /* \"#utility.yul\":1330:1339   */\n  dup3\n    /* \"#utility.yul\":1311:1408   */\n  tag_11\n  jump\t// in\ntag_37:\n    /* \"#utility.yul\":1429:1468   */\n  tag_38\n    /* \"#utility.yul\":1459:1467   */\n  dup7\n    /* \"#utility.yul\":1448:1457   */\n  dup4\n    /* \"#utility.yul\":1429:1468   */\n  tag_11\n  jump\t// in\ntag_38:\n    /* \"#utility.yul\":1417:1468   */\n  swap6\n  pop\n    /* \"#utility.yul\":1501:1505   */\n  dup1\n    /* \"#utility.yul\":1497:1506   */\n  not\n    /* \"#utility.yul\":1490:1495   */\n  dup5\n    /* \"#utility.yul\":1486:1507   */\n  and\n    /* \"#utility.yul\":1477:1507   */\n  swap4\n  pop\n    /* \"#utility.yul\":1550:1554   */\n  dup1\n    /* \"#utility.yul\":1540:1548   */\n  dup7\n    /* \"#utility.yul\":1536:1555   */\n  and\n    /* \"#utility.yul\":1529:1534   */\n  dup5\n    /* \"#utility.yul\":1526:1556   */\n  or\n    /* \"#utility.yul\":1516:1556   */\n  swap3\n  pop\n    /* \"#utility.yul\":1245:1562   */\n  pop\n  pop\n    /* \"#utility.yul\":1169:1562   */\n  swap4\n  swap3\n  pop\n  pop\n  pop\n  jump\t// out\n    /* \"#utility.yul\":1568:1645   */\ntag_13:\n    /* \"#utility.yul\":1605:1612   */\n  0x00\n    /* \"#utility.yul\":1634:1639   */\n  dup2\n    /* \"#utility.yul\":1623:1639   */\n  swap1\n  pop\n    /* \"#utility.yul\":1568:1645   */\n  swap2\n  swap1\n  pop\n  jump\t// out\n    /* \"#utility.yul\":1651:1711   */\ntag_14:\n    /* \"#utility.yul\":1679:1682   */\n  0x00\n    /* \"#utility.yul\":1700:1705   */\n  dup2\n    /* \"#utility.yul\":1693:1705   */\n  swap1\n  pop\n    /* \"#utility.yul\":1651:1711   */\n  swap2\n  swap1\n  pop\n  jump\t// out\n    /* \"#utility.yul\":1717:1859   */\ntag_15:\n    /* \"#utility.yul\":1767:1776   */\n  0x00\n    /* \"#utility.yul\":1800:1853   */\n  tag_42\n    /* \"#utility.yul\":1818:1852   */\n  tag_43\n    /* \"#utility.yul\":1827:1851   */\n  tag_44\n    /* \"#utility.yul\":1845:1850   */\n  dup5\n    /* \"#utility.yul\":1827:1851   */\n  tag_13\n  jump\t// in\ntag_44:\n    /* \"#utility.yul\":1818:1852   */\n  tag_14\n  jump\t// in\ntag_43:\n    /* \"#utility.yul\":1800:1853   */\n  tag_13\n  jump\t// in\ntag_42:\n    /* \"#utility.yul\":1787:1853   */\n  swap1\n  pop\n    /* \"#utility.yul\":1717:1859   */\n  swap2\n  swap1\n  pop\n  jump\t// out\n    /* \"#utility.yul\":1865:1940   */\ntag_16:\n    /* \"#utility.yul\":1908:1911   */\n  0x00\n    /* \"#utility.yul\":1929:1934   */\n  dup2\n    /* \"#utility.yul\":1922:1934   */\n  swap1\n  pop\n    /* \"#utility.yul\":1865:1940   */\n  swap2\n  swap1\n  pop\n  jump\t// out\n    /* \"#utility.yul\":1946:2215   */\ntag_17:\n    /* \"#utility.yul\":2056:2095   */\n  tag_47\n    /* \"#utility.yul\":2087:2094   */\n  dup4\n    /* \"#utility.yul\":2056:2095   */\n  tag_15\n  jump\t// in\ntag_47:\n    /* \"#utility.yul\":2117:2208   */\n  tag_48\n    /* \"#utility.yul\":2166:2207   */\n  tag_49\n    /* \"#utility.yul\":2190:2206   */\n  dup3\n    /* \"#utility.yul\":2166:2207   */\n  tag_16\n  jump\t// in\ntag_49:\n    /* \"#utility.yul\":2158:2164   */\n  dup5\n    /* \"#utility.yul\":2151:2155   */\n  dup5\n    /* \"#utility.yul\":2145:2156   */\n  sload\n    /* \"#utility.yul\":2117:2208   */\n  tag_12\n  jump\t// in\ntag_48:\n    /* \"#utility.yul\":2111:2115   */\n  dup3\n    /* \"#utility.yul\":2104:2209   */\n  sstore\n    /* \"#utility.yul\":2022:2215   */\n  pop\n    /* \"#utility.yul\":1946:2215   */\n  pop\n  pop\n  pop\n  jump\t// out\n    /* \"#utility.yul\":2221:2294   */\ntag_18:\n    /* \"#utility.yul\":2266:2269   */\n  0x00\n    /* \"#utility.yul\":2221:2294   */\n  swap1\n  jump\t// out\n    /* \"#utility.yul\":2300:2489   */\ntag_19:\n    /* \"#utility.yul\":2377:2409   */\n  tag_52\n  tag_18\n  jump\t// in\ntag_52:\n    /* \"#utility.yul\":2418:2483   */\n  tag_53\n    /* \"#utility.yul\":2476:2482   */\n  dup2\n    /* \"#utility.yul\":2468:2474   */\n  dup5\n    /* \"#utility.yul\":2462:2466   */\n  dup5\n    /* \"#utility.yul\":2418:2483   */\n  tag_17\n  jump\t// in\ntag_53:\n    /* \"#utility.yul\":2353:2489   */\n  pop\n    /* \"#utility.yul\":2300:2489   */\n  pop\n  pop\n  jump\t// out\n    /* \"#utility.yul\":2495:2681   */\ntag_20:\n    /* \"#utility.yul\":2555:2675   */\ntag_55:\n    /* \"#utility.yul\":2572:2575   */\n  dup2\n    /* \"#utility.yul\":2565:2570   */\n  dup2\n    /* \"#utility.yul\":2562:2576   */\n  lt\n    /* \"#utility.yul\":2555:2675   */\n  iszero\n  tag_57\n  jumpi\n    /* \"#utility.yul\":2626:2665   */\n  tag_58\n    /* \"#utility.yul\":2663:2664   */\n  0x00\n    /* \"#utility.yul\":2656:2661   */\n  dup3\n    /* \"#utility.yul\":2626:2665   */\n  tag_19\n  jump\t// in\ntag_58:\n    /* \"#utility.yul\":2599:2600   */\n  0x01\n    /* \"#utility.yul\":2592:2597   */\n  dup2\n    /* \"#utility.yul\":2588:2601   */\n  add\n    /* \"#utility.yul\":2579:2601   */\n  swap1\n  pop\n    /* \"#utility.yul\":2555:2675   */\n  jump(tag_55)\ntag_57:\n    /* \"#utility.yul\":2495:2681   */\n  pop\n  pop\n  jump\t// out\n    /* \"#utility.yul\":2687:3230   */\ntag_21:\n    /* \"#utility.yul\":2788:2790   */\n  0x1f\n    /* \"#utility.yul\":2783:2786   */\n  dup3\n    /* \"#utility.yul\":2780:2791   */\n  gt\n    /* \"#utility.yul\":2777:3223   */\n  iszero\n  tag_60\n  jumpi\n    /* \"#utility.yul\":2822:2860   */\n  tag_61\n    /* \"#utility.yul\":2854:2859   */\n  dup2\n    /* \"#utility.yul\":2822:2860   */\n  tag_9\n  jump\t// in\ntag_61:\n    /* \"#utility.yul\":2906:2935   */\n  tag_62\n    /* \"#utility.yul\":2924:2934   */\n  dup5\n    /* \"#utility.yul\":2906:2935   */\n  tag_10\n  jump\t// in\ntag_62:\n    /* \"#utility.yul\":2896:2904   */\n  dup2\n    /* \"#utility.yul\":2892:2936   */\n  add\n    /* \"#utility.yul\":3089:3091   */\n  0x20\n    /* \"#utility.yul\":3077:3087   */\n  dup6\n    /* \"#utility.yul\":3074:3092   */\n  lt\n    /* \"#utility.yul\":3071:3120   */\n  iszero\n  tag_63\n  jumpi\n    /* \"#utility.yul\":3110:3118   */\n  dup2\n    /* \"#utility.yul\":3095:3118   */\n  swap1\n  pop\n    /* \"#utility.yul\":3071:3120   */\ntag_63:\n    /* \"#utility.yul\":3133:3213   */\n  tag_64\n    /* \"#utility.yul\":3189:3211   */\n  tag_65\n    /* \"#utility.yul\":3207:3210   */\n  dup6\n    /* \"#utility.yul\":3189:3211   */\n  tag_10\n  jump\t// in\ntag_65:\n    /* \"#utility.yul\":3179:3187   */\n  dup4\n    /* \"#utility.yul\":3175:3212   */\n  add\n    /* \"#utility.yul\":3162:3173   */\n  dup3\n    /* \"#utility.yul\":3133:3213   */\n  tag_20\n  jump\t// in\ntag_64:\n    /* \"#utility.yul\":2792:3223   */\n  pop\n  pop\n    /* \"#utility.yul\":2777:3223   */\ntag_60:\n    /* \"#utility.yul\":2687:3230   */\n  pop\n  pop\n  pop\n  jump\t// out\n    /* \"#utility.yul\":3236:3353   */\ntag_22:\n    /* \"#utility.yul\":3290:3298   */\n  0x00\n    /* \"#utility.yul\":3340:3345   */\n  dup3\n    /* \"#utility.yul\":3334:3338   */\n  dup3\n    /* \"#utility.yul\":3330:3346   */\n  shr\n    /* \"#utility.yul\":3309:3346   */\n  swap1\n  pop\n    /* \"#utility.yul\":3236:3353   */\n  swap3\n  swap2\n  pop\n  pop\n  jump\t// out\n    /* \"#utility.yul\":3359:3528   */\ntag_23:\n    /* \"#utility.yul\":3403:3409   */\n  0x00\n    /* \"#utility.yul\":3436:3487   */\n  tag_68\n    /* \"#utility.yul\":3484:3485   */\n  0x00\n    /* \"#utility.yul\":3480:3486   */\n  not\n    /* \"#utility.yul\":3472:3477   */\n  dup5\n    /* \"#utility.yul\":3469:3470   */\n  0x08\n    /* \"#utility.yul\":3465:3478   */\n  mul\n    /* \"#utility.yul\":3436:3487   */\n  tag_22\n  jump\t// in\ntag_68:\n    /* \"#utility.yul\":3432:3488   */\n  not\n    /* \"#utility.yul\":3517:3521   */\n  dup1\n    /* \"#utility.yul\":3511:3515   */\n  dup4\n    /* \"#utility.yul\":3507:3522   */\n  and\n    /* \"#utility.yul\":3497:3522   */\n  swap2\n  pop\n    /* \"#utility.yul\":3410:3528   */\n  pop\n    /* \"#utility.yul\":3359:3528   */\n  swap3\n  swap2\n  pop\n  pop\n  jump\t// out\n    /* \"#utility.yul\":3533:3828   */\ntag_24:\n    /* \"#utility.yul\":3609:3613   */\n  0x00\n    /* \"#utility.yul\":3755:3784   */\n  tag_70\n    /* \"#utility.yul\":3780:3783   */\n  dup4\n    /* \"#utility.yul\":3774:3778   */\n  dup4\n    /* \"#utility.yul\":3755:3784   */\n  tag_23\n  jump\t// in\ntag_70:\n    /* \"#utility.yul\":3747:3784   */\n  swap2\n  pop\n    /* \"#utility.yul\":3817:3820   */\n  dup3\n    /* \"#utility.yul\":3814:3815   */\n  0x02\n    /* \"#utility.yul\":3810:3821   */\n  mul\n    /* \"#utility.yul\":3804:3808   */\n  dup3\n    /* \"#utility.yul\":3801:3822   */\n  or\n    /* \"#utility.yul\":3793:3822   */\n  swap1\n  pop\n    /* \"#utility.yul\":3533:3828   */\n  swap3\n  swap2\n  pop\n  pop\n  jump\t// out\n    /* \"#utility.yul\":3833:5228   */\ntag_2:\n    /* \"#utility.yul\":3950:3987   */\n  tag_72\n    /* \"#utility.yul\":3983:3986   */\n  dup3\n    /* \"#utility.yul\":3950:3987   */\n  tag_5\n  jump\t// in\ntag_72:\n    /* \"#utility.yul\":4052:4070   */\n  0xffffffffffffffff\n    /* \"#utility.yul\":4044:4050   */\n  dup2\n    /* \"#utility.yul\":4041:4071   */\n  gt\n    /* \"#utility.yul\":4038:4094   */\n  iszero\n  tag_73\n  jumpi\n    /* \"#utility.yul\":4074:4092   */\n  tag_74\n  tag_6\n  jump\t// in\ntag_74:\n    /* \"#utility.yul\":4038:4094   */\ntag_73:\n    /* \"#utility.yul\":4118:4156   */\n  tag_75\n    /* \"#utility.yul\":4150:4154   */\n  dup3\n    /* \"#utility.yul\":4144:4155   */\n  sload\n    /* \"#utility.yul\":4118:4156   */\n  tag_8\n  jump\t// in\ntag_75:\n    /* \"#utility.yul\":4203:4270   */\n  tag_76\n    /* \"#utility.yul\":4263:4269   */\n  dup3\n    /* \"#utility.yul\":4255:4261   */\n  dup3\n    /* \"#utility.yul\":4249:4253   */\n  dup6\n    /* \"#utility.yul\":4203:4270   */\n  tag_21\n  jump\t// in\ntag_76:\n    /* \"#utility.yul\":4297:4298   */\n  0x00\n    /* \"#utility.yul\":4321:4325   */\n  0x20\n    /* \"#utility.yul\":4308:4325   */\n  swap1\n  pop\n    /* \"#utility.yul\":4353:4355   */\n  0x1f\n    /* \"#utility.yul\":4345:4351   */\n  dup4\n    /* \"#utility.yul\":4342:4356   */\n  gt\n    /* \"#utility.yul\":4370:4371   */\n  0x01\n    /* \"#utility.yul\":4365:4983   */\n  dup2\n  eq\n  tag_78\n  jumpi\n    /* \"#utility.yul\":5027:5028   */\n  0x00\n    /* \"#utility.yul\":5044:5050   */\n  dup5\n    /* \"#utility.yul\":5041:5118   */\n  iszero\n  tag_79\n  jumpi\n    /* \"#utility.yul\":5093:5102   */\n  dup3\n    /* \"#utility.yul\":5088:5091   */\n  dup8\n    /* \"#utility.yul\":5084:5103   */\n  add\n    /* \"#utility.yul\":5078:5104   */\n  mload\n    /* \"#utility.yul\":5069:5104   */\n  swap1\n  pop\n    /* \"#utility.yul\":5041:5118   */\ntag_79:\n    /* \"#utility.yul\":5144:5211   */\n  tag_80\n    /* \"#utility.yul\":5204:5210   */\n  dup6\n    /* \"#utility.yul\":5197:5202   */\n  dup3\n    /* \"#utility.yul\":5144:5211   */\n  tag_24\n  jump\t// in\ntag_80:\n    /* \"#utility.yul\":5138:5142   */\n  dup7\n    /* \"#utility.yul\":5131:5212   */\n  sstore\n    /* \"#utility.yul\":5000:5222   */\n  pop\n    /* \"#utility.yul\":4335:5222   */\n  jump(tag_77)\n    /* \"#utility.yul\":4365:4983   */\ntag_78:\n    /* \"#utility.yul\":4417:4421   */\n  0x1f\n    /* \"#utility.yul\":4413:4422   */\n  not\n    /* \"#utility.yul\":4405:4411   */\n  dup5\n    /* \"#utility.yul\":4401:4423   */\n  and\n    /* \"#utility.yul\":4451:4488   */\n  tag_81\n    /* \"#utility.yul\":4483:4487   */\n  dup7\n    /* \"#utility.yul\":4451:4488   */\n  tag_9\n  jump\t// in\ntag_81:\n    /* \"#utility.yul\":4510:4511   */\n  0x00\n    /* \"#utility.yul\":4524:4732   */\ntag_82:\n    /* \"#utility.yul\":4538:4545   */\n  dup3\n    /* \"#utility.yul\":4535:4536   */\n  dup2\n    /* \"#utility.yul\":4532:4546   */\n  lt\n    /* \"#utility.yul\":4524:4732   */\n  iszero\n  tag_84\n  jumpi\n    /* \"#utility.yul\":4617:4626   */\n  dup5\n    /* \"#utility.yul\":4612:4615   */\n  dup10\n    /* \"#utility.yul\":4608:4627   */\n  add\n    /* \"#utility.yul\":4602:4628   */\n  mload\n    /* \"#utility.yul\":4594:4600   */\n  dup3\n    /* \"#utility.yul\":4587:4629   */\n  sstore\n    /* \"#utility.yul\":4668:4669   */\n  0x01\n    /* \"#utility.yul\":4660:4666   */\n  dup3\n    /* \"#utility.yul\":4656:4670   */\n  add\n    /* \"#utility.yul\":4646:4670   */\n  swap2\n  pop\n    /* \"#utility.yul\":4715:4717   */\n  0x20\n    /* \"#utility.yul\":4704:4713   */\n  dup6\n    /* \"#utility.yul\":4700:4718   */\n  add\n    /* \"#utility.yul\":4687:4718   */\n  swap5\n  pop\n    /* \"#utility.yul\":4561:4565   */\n  0x20\n    /* \"#utility.yul\":4558:4559   */\n  dup2\n    /* \"#utility.yul\":4554:4566   */\n  add\n    /* \"#utility.yul\":4549:4566   */\n  swap1\n  pop\n    /* \"#utility.yul\":4524:4732   */\n  jump(tag_82)\ntag_84:\n    /* \"#utility.yul\":4760:4766   */\n  dup7\n    /* \"#utility.yul\":4751:4758   */\n  dup4\n    /* \"#utility.yul\":4748:4767   */\n  lt\n    /* \"#utility.yul\":4745:4924   */\n  iszero\n  tag_85\n  jumpi\n    /* \"#utility.yul\":4818:4827   */\n  dup5\n    /* \"#utility.yul\":4813:4816   */\n  dup10\n    /* \"#utility.yul\":4809:4828   */\n  add\n    /* \"#utility.yul\":4803:4829   */\n  mload\n    /* \"#utility.yul\":4861:4909   */\n  tag_86\n    /* \"#utility.yul\":4903:4907   */\n  0x1f\n    /* \"#utility.yul\":4895:4901   */\n  dup10\n    /* \"#utility.yul\":4891:4908   */\n  and\n    /* \"#utility.yul\":4880:4889   */\n  dup3\n    /* \"#utility.yul\":4861:4909   */\n  tag_23\n  jump\t// in\ntag_86:\n    /* \"#utility.yul\":4853:4859   */\n  dup4\n    /* \"#utility.yul\":4846:4910   */\n  sstore\n    /* \"#utility.yul\":4768:4924   */\n  pop\n    /* \"#utility.yul\":4745:4924   */\ntag_85:\n    /* \"#utility.yul\":4970:4971   */\n  0x01\n    /* \"#utility.yul\":4966:4967   */\n  0x02\n    /* \"#utility.yul\":4958:4964   */\n  dup9\n    /* \"#utility.yul\":4954:4968   */\n  mul\n    /* \"#utility.yul\":4950:4972   */\n  add\n    /* \"#utility.yul\":4944:4948   */\n  dup9\n    /* \"#utility.yul\":4937:4973   */\n  sstore\n    /* \"#utility.yul\":4372:4983   */\n  pop\n  pop\n  pop\n    /* \"#utility.yul\":4335:5222   */\ntag_77:\n  pop\n    /* \"#utility.yul\":3925:5228   */\n  pop\n  pop\n  pop\n    /* \"#utility.yul\":3833:5228   */\n  pop\n  pop\n  jump\t// out\n    /* \"contracts/SimpleStorage.sol\":153:1785  contract SimpleStorage {... */\ntag_4:\n  dataSize(sub_0)\n  dup1\n  dataOffset(sub_0)\n  0x00\n  codecopy\n  0x00\n  return\nstop\n\nsub_0: assembly {\n        /* \"contracts/SimpleStorage.sol\":153:1785  contract SimpleStorage {... */\n      mstore(0x40, 0x80)\n      callvalue\n      dup1\n      iszero\n      tag_1\n      jumpi\n      0x00\n      dup1\n      revert\n    tag_1:\n      pop\n      jumpi(tag_2, lt(calldatasize, 0x04))\n      shr(0xe0, calldataload(0x00))\n      dup1\n      0x77ec2b55\n      gt\n      tag_10\n      jumpi\n      dup1\n      0x77ec2b55\n      eq\n      tag_6\n      jumpi\n      dup1\n      0x8bab8dd5\n      eq\n      tag_7\n      jumpi\n      dup1\n      0x9e7a13ad\n      eq\n      tag_8\n      jumpi\n      dup1\n      0xbc832d4e\n      eq\n      tag_9\n      jumpi\n      jump(tag_2)\n    tag_10:\n      dup1\n      0x2e64cec1\n      eq\n      tag_3\n      jumpi\n      dup1\n      0x471f7cdf\n      eq\n      tag_4\n      jumpi\n      dup1\n      0x6057361d\n      eq\n      tag_5\n      jumpi\n    tag_2:\n      0x00\n      dup1\n      revert\n        /* \"contracts/SimpleStorage.sol\":1420:1509  function retrieve() public view returns(uint256) {... */\n    tag_3:\n      tag_11\n      tag_12\n      jump\t// in\n    tag_11:\n      mload(0x40)\n      tag_13\n      swap2\n      swap1\n      tag_14\n      jump\t// in\n    tag_13:\n      mload(0x40)\n      dup1\n      swap2\n      sub\n      swap1\n      return\n        /* \"contracts/SimpleStorage.sol\":263:292  uint256 public favoriteNumber */\n    tag_4:\n      tag_15\n      tag_16\n      jump\t// in\n    tag_15:\n      mload(0x40)\n      tag_17\n      swap2\n      swap1\n      tag_14\n      jump\t// in\n    tag_17:\n      mload(0x40)\n      dup1\n      swap2\n      sub\n      swap1\n      return\n        /* \"contracts/SimpleStorage.sol\":1113:1219  function store(uint256 _favoriteNumber) public virtual {... */\n    tag_5:\n      tag_18\n      0x04\n      dup1\n      calldatasize\n      sub\n      dup2\n      add\n      swap1\n      tag_19\n      swap2\n      swap1\n      tag_20\n      jump\t// in\n    tag_19:\n      tag_21\n      jump\t// in\n    tag_18:\n      stop\n        /* \"contracts/SimpleStorage.sol\":664:727  People public person = People({favoriteNumber: 2, name: 'Pat'}) */\n    tag_6:\n      tag_22\n      tag_23\n      jump\t// in\n    tag_22:\n      mload(0x40)\n      tag_24\n      swap3\n      swap2\n      swap1\n      tag_25\n      jump\t// in\n    tag_24:\n      mload(0x40)\n      dup1\n      swap2\n      sub\n      swap1\n      return\n        /* \"contracts/SimpleStorage.sol\":301:355  mapping(string => uint256) public nameToFavoriteNumber */\n    tag_7:\n      tag_26\n      0x04\n      dup1\n      calldatasize\n      sub\n      dup2\n      add\n      swap1\n      tag_27\n      swap2\n      swap1\n      tag_28\n      jump\t// in\n    tag_27:\n      tag_29\n      jump\t// in\n    tag_26:\n      mload(0x40)\n      tag_30\n      swap2\n      swap1\n      tag_14\n      jump\t// in\n    tag_30:\n      mload(0x40)\n      dup1\n      swap2\n      sub\n      swap1\n      return\n        /* \"contracts/SimpleStorage.sol\":1082:1104  People[] public people */\n    tag_8:\n      tag_31\n      0x04\n      dup1\n      calldatasize\n      sub\n      dup2\n      add\n      swap1\n      tag_32\n      swap2\n      swap1\n      tag_20\n      jump\t// in\n    tag_32:\n      tag_33\n      jump\t// in\n    tag_31:\n      mload(0x40)\n      tag_34\n      swap3\n      swap2\n      swap1\n      tag_25\n      jump\t// in\n    tag_34:\n      mload(0x40)\n      dup1\n      swap2\n      sub\n      swap1\n      return\n        /* \"contracts/SimpleStorage.sol\":1560:1782  function addPerson(uint256 _favoriteNumber, string memory _name) public {... */\n    tag_9:\n      tag_35\n      0x04\n      dup1\n      calldatasize\n      sub\n      dup2\n      add\n      swap1\n      tag_36\n      swap2\n      swap1\n      tag_37\n      jump\t// in\n    tag_36:\n      tag_38\n      jump\t// in\n    tag_35:\n      stop\n        /* \"contracts/SimpleStorage.sol\":1420:1509  function retrieve() public view returns(uint256) {... */\n    tag_12:\n        /* \"contracts/SimpleStorage.sol\":1460:1467  uint256 */\n      0x00\n        /* \"contracts/SimpleStorage.sol\":1487:1501  favoriteNumber */\n      dup1\n      sload\n        /* \"contracts/SimpleStorage.sol\":1480:1501  return favoriteNumber */\n      swap1\n      pop\n        /* \"contracts/SimpleStorage.sol\":1420:1509  function retrieve() public view returns(uint256) {... */\n      swap1\n      jump\t// out\n        /* \"contracts/SimpleStorage.sol\":263:292  uint256 public favoriteNumber */\n    tag_16:\n      sload(0x00)\n      dup2\n      jump\t// out\n        /* \"contracts/SimpleStorage.sol\":1113:1219  function store(uint256 _favoriteNumber) public virtual {... */\n    tag_21:\n        /* \"contracts/SimpleStorage.sol\":1196:1211  _favoriteNumber */\n      dup1\n        /* \"contracts/SimpleStorage.sol\":1179:1193  favoriteNumber */\n      0x00\n        /* \"contracts/SimpleStorage.sol\":1179:1211  favoriteNumber = _favoriteNumber */\n      dup2\n      swap1\n      sstore\n      pop\n        /* \"contracts/SimpleStorage.sol\":1113:1219  function store(uint256 _favoriteNumber) public virtual {... */\n      pop\n      jump\t// out\n        /* \"contracts/SimpleStorage.sol\":664:727  People public person = People({favoriteNumber: 2, name: 'Pat'}) */\n    tag_23:\n      0x02\n      dup1\n      0x00\n      add\n      sload\n      swap1\n      dup1\n      0x01\n      add\n      dup1\n      sload\n      tag_41\n      swap1\n      tag_42\n      jump\t// in\n    tag_41:\n      dup1\n      0x1f\n      add\n      0x20\n      dup1\n      swap2\n      div\n      mul\n      0x20\n      add\n      mload(0x40)\n      swap1\n      dup2\n      add\n      0x40\n      mstore\n      dup1\n      swap3\n      swap2\n      swap1\n      dup2\n      dup2\n      mstore\n      0x20\n      add\n      dup3\n      dup1\n      sload\n      tag_43\n      swap1\n      tag_42\n      jump\t// in\n    tag_43:\n      dup1\n      iszero\n      tag_44\n      jumpi\n      dup1\n      0x1f\n      lt\n      tag_45\n      jumpi\n      0x0100\n      dup1\n      dup4\n      sload\n      div\n      mul\n      dup4\n      mstore\n      swap2\n      0x20\n      add\n      swap2\n      jump(tag_44)\n    tag_45:\n      dup3\n      add\n      swap2\n      swap1\n      0x00\n      mstore\n      keccak256(0x00, 0x20)\n      swap1\n    tag_46:\n      dup2\n      sload\n      dup2\n      mstore\n      swap1\n      0x01\n      add\n      swap1\n      0x20\n      add\n      dup1\n      dup4\n      gt\n      tag_46\n      jumpi\n      dup3\n      swap1\n      sub\n      0x1f\n      and\n      dup3\n      add\n      swap2\n    tag_44:\n      pop\n      pop\n      pop\n      pop\n      pop\n      swap1\n      pop\n      dup3\n      jump\t// out\n        /* \"contracts/SimpleStorage.sol\":301:355  mapping(string => uint256) public nameToFavoriteNumber */\n    tag_29:\n      0x01\n      dup2\n      dup1\n      mload\n      0x20\n      dup2\n      add\n      dup3\n      add\n      dup1\n      mload\n      dup5\n      dup3\n      mstore\n      0x20\n      dup4\n      add\n      0x20\n      dup6\n      add\n      keccak256\n      dup2\n      dup4\n      mstore\n      dup1\n      swap6\n      pop\n      pop\n      pop\n      pop\n      pop\n      pop\n      0x00\n      swap2\n      pop\n      swap1\n      pop\n      sload\n      dup2\n      jump\t// out\n        /* \"contracts/SimpleStorage.sol\":1082:1104  People[] public people */\n    tag_33:\n      0x04\n      dup2\n      dup2\n      sload\n      dup2\n      lt\n      tag_47\n      jumpi\n      0x00\n      dup1\n      revert\n    tag_47:\n      swap1\n      0x00\n      mstore\n      keccak256(0x00, 0x20)\n      swap1\n      0x02\n      mul\n      add\n      0x00\n      swap2\n      pop\n      swap1\n      pop\n      dup1\n      0x00\n      add\n      sload\n      swap1\n      dup1\n      0x01\n      add\n      dup1\n      sload\n      tag_49\n      swap1\n      tag_42\n      jump\t// in\n    tag_49:\n      dup1\n      0x1f\n      add\n      0x20\n      dup1\n      swap2\n      div\n      mul\n      0x20\n      add\n      mload(0x40)\n      swap1\n      dup2\n      add\n      0x40\n      mstore\n      dup1\n      swap3\n      swap2\n      swap1\n      dup2\n      dup2\n      mstore\n      0x20\n      add\n      dup3\n      dup1\n      sload\n      tag_50\n      swap1\n      tag_42\n      jump\t// in\n    tag_50:\n      dup1\n      iszero\n      tag_51\n      jumpi\n      dup1\n      0x1f\n      lt\n      tag_52\n      jumpi\n      0x0100\n      dup1\n      dup4\n      sload\n      div\n      mul\n      dup4\n      mstore\n      swap2\n      0x20\n      add\n      swap2\n      jump(tag_51)\n    tag_52:\n      dup3\n      add\n      swap2\n      swap1\n      0x00\n      mstore\n      keccak256(0x00, 0x20)\n      swap1\n    tag_53:\n      dup2\n      sload\n      dup2\n      mstore\n      swap1\n      0x01\n      add\n      swap1\n      0x20\n      add\n      dup1\n      dup4\n      gt\n      tag_53\n      jumpi\n      dup3\n      swap1\n      sub\n      0x1f\n      and\n      dup3\n      add\n      swap2\n    tag_51:\n      pop\n      pop\n      pop\n      pop\n      pop\n      swap1\n      pop\n      dup3\n      jump\t// out\n        /* \"contracts/SimpleStorage.sol\":1560:1782  function addPerson(uint256 _favoriteNumber, string memory _name) public {... */\n    tag_38:\n        /* \"contracts/SimpleStorage.sol\":1643:1649  people */\n      0x04\n        /* \"contracts/SimpleStorage.sol\":1655:1685  People(_favoriteNumber, _name) */\n      mload(0x40)\n      dup1\n      0x40\n      add\n      0x40\n      mstore\n      dup1\n        /* \"contracts/SimpleStorage.sol\":1662:1677  _favoriteNumber */\n      dup5\n        /* \"contracts/SimpleStorage.sol\":1655:1685  People(_favoriteNumber, _name) */\n      dup2\n      mstore\n      0x20\n      add\n        /* \"contracts/SimpleStorage.sol\":1679:1684  _name */\n      dup4\n        /* \"contracts/SimpleStorage.sol\":1655:1685  People(_favoriteNumber, _name) */\n      dup2\n      mstore\n      pop\n        /* \"contracts/SimpleStorage.sol\":1643:1686  people.push(People(_favoriteNumber, _name)) */\n      swap1\n      dup1\n      0x01\n      dup2\n      sload\n      add\n      dup1\n      dup3\n      sstore\n      dup1\n      swap2\n      pop\n      pop\n      0x01\n      swap1\n      sub\n      swap1\n      0x00\n      mstore\n      keccak256(0x00, 0x20)\n      swap1\n      0x02\n      mul\n      add\n      0x00\n      swap1\n      swap2\n      swap1\n      swap2\n      swap1\n      swap2\n      pop\n      0x00\n      dup3\n      add\n      mload\n      dup2\n      0x00\n      add\n      sstore\n      0x20\n      dup3\n      add\n      mload\n      dup2\n      0x01\n      add\n      swap1\n      dup2\n      tag_56\n      swap2\n      swap1\n      tag_57\n      jump\t// in\n    tag_56:\n      pop\n      pop\n      pop\n        /* \"contracts/SimpleStorage.sol\":1757:1772  _favoriteNumber */\n      dup2\n        /* \"contracts/SimpleStorage.sol\":1727:1747  nameToFavoriteNumber */\n      0x01\n        /* \"contracts/SimpleStorage.sol\":1748:1753  _name */\n      dup3\n        /* \"contracts/SimpleStorage.sol\":1727:1754  nameToFavoriteNumber[_name] */\n      mload(0x40)\n      tag_58\n      swap2\n      swap1\n      tag_59\n      jump\t// in\n    tag_58:\n      swap1\n      dup2\n      mstore\n      0x20\n      add\n      mload(0x40)\n      dup1\n      swap2\n      sub\n      swap1\n      keccak256\n        /* \"contracts/SimpleStorage.sol\":1727:1772  nameToFavoriteNumber[_name] = _favoriteNumber */\n      dup2\n      swap1\n      sstore\n      pop\n        /* \"contracts/SimpleStorage.sol\":1560:1782  function addPerson(uint256 _favoriteNumber, string memory _name) public {... */\n      pop\n      pop\n      jump\t// out\n        /* \"#utility.yul\":7:84   */\n    tag_60:\n        /* \"#utility.yul\":44:51   */\n      0x00\n        /* \"#utility.yul\":73:78   */\n      dup2\n        /* \"#utility.yul\":62:78   */\n      swap1\n      pop\n        /* \"#utility.yul\":7:84   */\n      swap2\n      swap1\n      pop\n      jump\t// out\n        /* \"#utility.yul\":90:208   */\n    tag_61:\n        /* \"#utility.yul\":177:201   */\n      tag_102\n        /* \"#utility.yul\":195:200   */\n      dup2\n        /* \"#utility.yul\":177:201   */\n      tag_60\n      jump\t// in\n    tag_102:\n        /* \"#utility.yul\":172:175   */\n      dup3\n        /* \"#utility.yul\":165:202   */\n      mstore\n        /* \"#utility.yul\":90:208   */\n      pop\n      pop\n      jump\t// out\n        /* \"#utility.yul\":214:436   */\n    tag_14:\n        /* \"#utility.yul\":307:311   */\n      0x00\n        /* \"#utility.yul\":345:347   */\n      0x20\n        /* \"#utility.yul\":334:343   */\n      dup3\n        /* \"#utility.yul\":330:348   */\n      add\n        /* \"#utility.yul\":322:348   */\n      swap1\n      pop\n        /* \"#utility.yul\":358:429   */\n      tag_104\n        /* \"#utility.yul\":426:427   */\n      0x00\n        /* \"#utility.yul\":415:424   */\n      dup4\n        /* \"#utility.yul\":411:428   */\n      add\n        /* \"#utility.yul\":402:408   */\n      dup5\n        /* \"#utility.yul\":358:429   */\n      tag_61\n      jump\t// in\n    tag_104:\n        /* \"#utility.yul\":214:436   */\n      swap3\n      swap2\n      pop\n      pop\n      jump\t// out\n        /* \"#utility.yul\":442:517   */\n    tag_62:\n        /* \"#utility.yul\":475:481   */\n      0x00\n        /* \"#utility.yul\":508:510   */\n      0x40\n        /* \"#utility.yul\":502:511   */\n      mload\n        /* \"#utility.yul\":492:511   */\n      swap1\n      pop\n        /* \"#utility.yul\":442:517   */\n      swap1\n      jump\t// out\n        /* \"#utility.yul\":523:640   */\n    tag_63:\n        /* \"#utility.yul\":632:633   */\n      0x00\n        /* \"#utility.yul\":629:630   */\n      dup1\n        /* \"#utility.yul\":622:634   */\n      revert\n        /* \"#utility.yul\":646:763   */\n    tag_64:\n        /* \"#utility.yul\":755:756   */\n      0x00\n        /* \"#utility.yul\":752:753   */\n      dup1\n        /* \"#utility.yul\":745:757   */\n      revert\n        /* \"#utility.yul\":769:891   */\n    tag_65:\n        /* \"#utility.yul\":842:866   */\n      tag_109\n        /* \"#utility.yul\":860:865   */\n      dup2\n        /* \"#utility.yul\":842:866   */\n      tag_60\n      jump\t// in\n    tag_109:\n        /* \"#utility.yul\":835:840   */\n      dup2\n        /* \"#utility.yul\":832:867   */\n      eq\n        /* \"#utility.yul\":822:885   */\n      tag_110\n      jumpi\n        /* \"#utility.yul\":881:882   */\n      0x00\n        /* \"#utility.yul\":878:879   */\n      dup1\n        /* \"#utility.yul\":871:883   */\n      revert\n        /* \"#utility.yul\":822:885   */\n    tag_110:\n        /* \"#utility.yul\":769:891   */\n      pop\n      jump\t// out\n        /* \"#utility.yul\":897:1036   */\n    tag_66:\n        /* \"#utility.yul\":943:948   */\n      0x00\n        /* \"#utility.yul\":981:987   */\n      dup2\n        /* \"#utility.yul\":968:988   */\n      calldataload\n        /* \"#utility.yul\":959:988   */\n      swap1\n      pop\n        /* \"#utility.yul\":997:1030   */\n      tag_112\n        /* \"#utility.yul\":1024:1029   */\n      dup2\n        /* \"#utility.yul\":997:1030   */\n      tag_65\n      jump\t// in\n    tag_112:\n        /* \"#utility.yul\":897:1036   */\n      swap3\n      swap2\n      pop\n      pop\n      jump\t// out\n        /* \"#utility.yul\":1042:1371   */\n    tag_20:\n        /* \"#utility.yul\":1101:1107   */\n      0x00\n        /* \"#utility.yul\":1150:1152   */\n      0x20\n        /* \"#utility.yul\":1138:1147   */\n      dup3\n        /* \"#utility.yul\":1129:1136   */\n      dup5\n        /* \"#utility.yul\":1125:1148   */\n      sub\n        /* \"#utility.yul\":1121:1153   */\n      slt\n        /* \"#utility.yul\":1118:1237   */\n      iszero\n      tag_114\n      jumpi\n        /* \"#utility.yul\":1156:1235   */\n      tag_115\n      tag_63\n      jump\t// in\n    tag_115:\n        /* \"#utility.yul\":1118:1237   */\n    tag_114:\n        /* \"#utility.yul\":1276:1277   */\n      0x00\n        /* \"#utility.yul\":1301:1354   */\n      tag_116\n        /* \"#utility.yul\":1346:1353   */\n      dup5\n        /* \"#utility.yul\":1337:1343   */\n      dup3\n        /* \"#utility.yul\":1326:1335   */\n      dup6\n        /* \"#utility.yul\":1322:1344   */\n      add\n        /* \"#utility.yul\":1301:1354   */\n      tag_66\n      jump\t// in\n    tag_116:\n        /* \"#utility.yul\":1291:1354   */\n      swap2\n      pop\n        /* \"#utility.yul\":1247:1364   */\n      pop\n        /* \"#utility.yul\":1042:1371   */\n      swap3\n      swap2\n      pop\n      pop\n      jump\t// out\n        /* \"#utility.yul\":1377:1476   */\n    tag_67:\n        /* \"#utility.yul\":1429:1435   */\n      0x00\n        /* \"#utility.yul\":1463:1468   */\n      dup2\n        /* \"#utility.yul\":1457:1469   */\n      mload\n        /* \"#utility.yul\":1447:1469   */\n      swap1\n      pop\n        /* \"#utility.yul\":1377:1476   */\n      swap2\n      swap1\n      pop\n      jump\t// out\n        /* \"#utility.yul\":1482:1651   */\n    tag_68:\n        /* \"#utility.yul\":1566:1577   */\n      0x00\n        /* \"#utility.yul\":1600:1606   */\n      dup3\n        /* \"#utility.yul\":1595:1598   */\n      dup3\n        /* \"#utility.yul\":1588:1607   */\n      mstore\n        /* \"#utility.yul\":1640:1644   */\n      0x20\n        /* \"#utility.yul\":1635:1638   */\n      dup3\n        /* \"#utility.yul\":1631:1645   */\n      add\n        /* \"#utility.yul\":1616:1645   */\n      swap1\n      pop\n        /* \"#utility.yul\":1482:1651   */\n      swap3\n      swap2\n      pop\n      pop\n      jump\t// out\n        /* \"#utility.yul\":1657:1796   */\n    tag_69:\n        /* \"#utility.yul\":1746:1752   */\n      dup3\n        /* \"#utility.yul\":1741:1744   */\n      dup2\n        /* \"#utility.yul\":1736:1739   */\n      dup4\n        /* \"#utility.yul\":1730:1753   */\n      mcopy\n        /* \"#utility.yul\":1787:1788   */\n      0x00\n        /* \"#utility.yul\":1778:1784   */\n      dup4\n        /* \"#utility.yul\":1773:1776   */\n      dup4\n        /* \"#utility.yul\":1769:1785   */\n      add\n        /* \"#utility.yul\":1762:1789   */\n      mstore\n        /* \"#utility.yul\":1657:1796   */\n      pop\n      pop\n      pop\n      jump\t// out\n        /* \"#utility.yul\":1802:1904   */\n    tag_70:\n        /* \"#utility.yul\":1843:1849   */\n      0x00\n        /* \"#utility.yul\":1894:1896   */\n      0x1f\n        /* \"#utility.yul\":1890:1897   */\n      not\n        /* \"#utility.yul\":1885:1887   */\n      0x1f\n        /* \"#utility.yul\":1878:1883   */\n      dup4\n        /* \"#utility.yul\":1874:1888   */\n      add\n        /* \"#utility.yul\":1870:1898   */\n      and\n        /* \"#utility.yul\":1860:1898   */\n      swap1\n      pop\n        /* \"#utility.yul\":1802:1904   */\n      swap2\n      swap1\n      pop\n      jump\t// out\n        /* \"#utility.yul\":1910:2287   */\n    tag_71:\n        /* \"#utility.yul\":1998:2001   */\n      0x00\n        /* \"#utility.yul\":2026:2065   */\n      tag_122\n        /* \"#utility.yul\":2059:2064   */\n      dup3\n        /* \"#utility.yul\":2026:2065   */\n      tag_67\n      jump\t// in\n    tag_122:\n        /* \"#utility.yul\":2081:2152   */\n      tag_123\n        /* \"#utility.yul\":2145:2151   */\n      dup2\n        /* \"#utility.yul\":2140:2143   */\n      dup6\n        /* \"#utility.yul\":2081:2152   */\n      tag_68\n      jump\t// in\n    tag_123:\n        /* \"#utility.yul\":2074:2152   */\n      swap4\n      pop\n        /* \"#utility.yul\":2161:2226   */\n      tag_124\n        /* \"#utility.yul\":2219:2225   */\n      dup2\n        /* \"#utility.yul\":2214:2217   */\n      dup6\n        /* \"#utility.yul\":2207:2211   */\n      0x20\n        /* \"#utility.yul\":2200:2205   */\n      dup7\n        /* \"#utility.yul\":2196:2212   */\n      add\n        /* \"#utility.yul\":2161:2226   */\n      tag_69\n      jump\t// in\n    tag_124:\n        /* \"#utility.yul\":2251:2280   */\n      tag_125\n        /* \"#utility.yul\":2273:2279   */\n      dup2\n        /* \"#utility.yul\":2251:2280   */\n      tag_70\n      jump\t// in\n    tag_125:\n        /* \"#utility.yul\":2246:2249   */\n      dup5\n        /* \"#utility.yul\":2242:2281   */\n      add\n        /* \"#utility.yul\":2235:2281   */\n      swap2\n      pop\n        /* \"#utility.yul\":2002:2287   */\n      pop\n        /* \"#utility.yul\":1910:2287   */\n      swap3\n      swap2\n      pop\n      pop\n      jump\t// out\n        /* \"#utility.yul\":2293:2716   */\n    tag_25:\n        /* \"#utility.yul\":2434:2438   */\n      0x00\n        /* \"#utility.yul\":2472:2474   */\n      0x40\n        /* \"#utility.yul\":2461:2470   */\n      dup3\n        /* \"#utility.yul\":2457:2475   */\n      add\n        /* \"#utility.yul\":2449:2475   */\n      swap1\n      pop\n        /* \"#utility.yul\":2485:2556   */\n      tag_127\n        /* \"#utility.yul\":2553:2554   */\n      0x00\n        /* \"#utility.yul\":2542:2551   */\n      dup4\n        /* \"#utility.yul\":2538:2555   */\n      add\n        /* \"#utility.yul\":2529:2535   */\n      dup6\n        /* \"#utility.yul\":2485:2556   */\n      tag_61\n      jump\t// in\n    tag_127:\n        /* \"#utility.yul\":2603:2612   */\n      dup2\n        /* \"#utility.yul\":2597:2601   */\n      dup2\n        /* \"#utility.yul\":2593:2613   */\n      sub\n        /* \"#utility.yul\":2588:2590   */\n      0x20\n        /* \"#utility.yul\":2577:2586   */\n      dup4\n        /* \"#utility.yul\":2573:2591   */\n      add\n        /* \"#utility.yul\":2566:2614   */\n      mstore\n        /* \"#utility.yul\":2631:2709   */\n      tag_128\n        /* \"#utility.yul\":2704:2708   */\n      dup2\n        /* \"#utility.yul\":2695:2701   */\n      dup5\n        /* \"#utility.yul\":2631:2709   */\n      tag_71\n      jump\t// in\n    tag_128:\n        /* \"#utility.yul\":2623:2709   */\n      swap1\n      pop\n        /* \"#utility.yul\":2293:2716   */\n      swap4\n      swap3\n      pop\n      pop\n      pop\n      jump\t// out\n        /* \"#utility.yul\":2722:2839   */\n    tag_72:\n        /* \"#utility.yul\":2831:2832   */\n      0x00\n        /* \"#utility.yul\":2828:2829   */\n      dup1\n        /* \"#utility.yul\":2821:2833   */\n      revert\n        /* \"#utility.yul\":2845:2962   */\n    tag_73:\n        /* \"#utility.yul\":2954:2955   */\n      0x00\n        /* \"#utility.yul\":2951:2952   */\n      dup1\n        /* \"#utility.yul\":2944:2956   */\n      revert\n        /* \"#utility.yul\":2968:3148   */\n    tag_74:\n        /* \"#utility.yul\":3016:3093   */\n      0x4e487b7100000000000000000000000000000000000000000000000000000000\n        /* \"#utility.yul\":3013:3014   */\n      0x00\n        /* \"#utility.yul\":3006:3094   */\n      mstore\n        /* \"#utility.yul\":3113:3117   */\n      0x41\n        /* \"#utility.yul\":3110:3111   */\n      0x04\n        /* \"#utility.yul\":3103:3118   */\n      mstore\n        /* \"#utility.yul\":3137:3141   */\n      0x24\n        /* \"#utility.yul\":3134:3135   */\n      0x00\n        /* \"#utility.yul\":3127:3142   */\n      revert\n        /* \"#utility.yul\":3154:3435   */\n    tag_75:\n        /* \"#utility.yul\":3237:3264   */\n      tag_133\n        /* \"#utility.yul\":3259:3263   */\n      dup3\n        /* \"#utility.yul\":3237:3264   */\n      tag_70\n      jump\t// in\n    tag_133:\n        /* \"#utility.yul\":3229:3235   */\n      dup2\n        /* \"#utility.yul\":3225:3265   */\n      add\n        /* \"#utility.yul\":3367:3373   */\n      dup2\n        /* \"#utility.yul\":3355:3365   */\n      dup2\n        /* \"#utility.yul\":3352:3374   */\n      lt\n        /* \"#utility.yul\":3331:3349   */\n      0xffffffffffffffff\n        /* \"#utility.yul\":3319:3329   */\n      dup3\n        /* \"#utility.yul\":3316:3350   */\n      gt\n        /* \"#utility.yul\":3313:3375   */\n      or\n        /* \"#utility.yul\":3310:3398   */\n      iszero\n      tag_134\n      jumpi\n        /* \"#utility.yul\":3378:3396   */\n      tag_135\n      tag_74\n      jump\t// in\n    tag_135:\n        /* \"#utility.yul\":3310:3398   */\n    tag_134:\n        /* \"#utility.yul\":3418:3428   */\n      dup1\n        /* \"#utility.yul\":3414:3416   */\n      0x40\n        /* \"#utility.yul\":3407:3429   */\n      mstore\n        /* \"#utility.yul\":3197:3435   */\n      pop\n        /* \"#utility.yul\":3154:3435   */\n      pop\n      pop\n      jump\t// out\n        /* \"#utility.yul\":3441:3570   */\n    tag_76:\n        /* \"#utility.yul\":3475:3481   */\n      0x00\n        /* \"#utility.yul\":3502:3522   */\n      tag_137\n      tag_62\n      jump\t// in\n    tag_137:\n        /* \"#utility.yul\":3492:3522   */\n      swap1\n      pop\n        /* \"#utility.yul\":3531:3564   */\n      tag_138\n        /* \"#utility.yul\":3559:3563   */\n      dup3\n        /* \"#utility.yul\":3551:3557   */\n      dup3\n        /* \"#utility.yul\":3531:3564   */\n      tag_75\n      jump\t// in\n    tag_138:\n        /* \"#utility.yul\":3441:3570   */\n      swap2\n      swap1\n      pop\n      jump\t// out\n        /* \"#utility.yul\":3576:3884   */\n    tag_77:\n        /* \"#utility.yul\":3638:3642   */\n      0x00\n        /* \"#utility.yul\":3728:3746   */\n      0xffffffffffffffff\n        /* \"#utility.yul\":3720:3726   */\n      dup3\n        /* \"#utility.yul\":3717:3747   */\n      gt\n        /* \"#utility.yul\":3714:3770   */\n      iszero\n      tag_140\n      jumpi\n        /* \"#utility.yul\":3750:3768   */\n      tag_141\n      tag_74\n      jump\t// in\n    tag_141:\n        /* \"#utility.yul\":3714:3770   */\n    tag_140:\n        /* \"#utility.yul\":3788:3817   */\n      tag_142\n        /* \"#utility.yul\":3810:3816   */\n      dup3\n        /* \"#utility.yul\":3788:3817   */\n      tag_70\n      jump\t// in\n    tag_142:\n        /* \"#utility.yul\":3780:3817   */\n      swap1\n      pop\n        /* \"#utility.yul\":3872:3876   */\n      0x20\n        /* \"#utility.yul\":3866:3870   */\n      dup2\n        /* \"#utility.yul\":3862:3877   */\n      add\n        /* \"#utility.yul\":3854:3877   */\n      swap1\n      pop\n        /* \"#utility.yul\":3576:3884   */\n      swap2\n      swap1\n      pop\n      jump\t// out\n        /* \"#utility.yul\":3890:4038   */\n    tag_78:\n        /* \"#utility.yul\":3988:3994   */\n      dup3\n        /* \"#utility.yul\":3983:3986   */\n      dup2\n        /* \"#utility.yul\":3978:3981   */\n      dup4\n        /* \"#utility.yul\":3965:3995   */\n      calldatacopy\n        /* \"#utility.yul\":4029:4030   */\n      0x00\n        /* \"#utility.yul\":4020:4026   */\n      dup4\n        /* \"#utility.yul\":4015:4018   */\n      dup4\n        /* \"#utility.yul\":4011:4027   */\n      add\n        /* \"#utility.yul\":4004:4031   */\n      mstore\n        /* \"#utility.yul\":3890:4038   */\n      pop\n      pop\n      pop\n      jump\t// out\n        /* \"#utility.yul\":4044:4469   */\n    tag_79:\n        /* \"#utility.yul\":4122:4127   */\n      0x00\n        /* \"#utility.yul\":4147:4213   */\n      tag_145\n        /* \"#utility.yul\":4163:4212   */\n      tag_146\n        /* \"#utility.yul\":4205:4211   */\n      dup5\n        /* \"#utility.yul\":4163:4212   */\n      tag_77\n      jump\t// in\n    tag_146:\n        /* \"#utility.yul\":4147:4213   */\n      tag_76\n      jump\t// in\n    tag_145:\n        /* \"#utility.yul\":4138:4213   */\n      swap1\n      pop\n        /* \"#utility.yul\":4236:4242   */\n      dup3\n        /* \"#utility.yul\":4229:4234   */\n      dup2\n        /* \"#utility.yul\":4222:4243   */\n      mstore\n        /* \"#utility.yul\":4274:4278   */\n      0x20\n        /* \"#utility.yul\":4267:4272   */\n      dup2\n        /* \"#utility.yul\":4263:4279   */\n      add\n        /* \"#utility.yul\":4312:4315   */\n      dup5\n        /* \"#utility.yul\":4303:4309   */\n      dup5\n        /* \"#utility.yul\":4298:4301   */\n      dup5\n        /* \"#utility.yul\":4294:4310   */\n      add\n        /* \"#utility.yul\":4291:4316   */\n      gt\n        /* \"#utility.yul\":4288:4400   */\n      iszero\n      tag_147\n      jumpi\n        /* \"#utility.yul\":4319:4398   */\n      tag_148\n      tag_73\n      jump\t// in\n    tag_148:\n        /* \"#utility.yul\":4288:4400   */\n    tag_147:\n        /* \"#utility.yul\":4409:4463   */\n      tag_149\n        /* \"#utility.yul\":4456:4462   */\n      dup5\n        /* \"#utility.yul\":4451:4454   */\n      dup3\n        /* \"#utility.yul\":4446:4449   */\n      dup6\n        /* \"#utility.yul\":4409:4463   */\n      tag_78\n      jump\t// in\n    tag_149:\n        /* \"#utility.yul\":4128:4469   */\n      pop\n        /* \"#utility.yul\":4044:4469   */\n      swap4\n      swap3\n      pop\n      pop\n      pop\n      jump\t// out\n        /* \"#utility.yul\":4489:4829   */\n    tag_80:\n        /* \"#utility.yul\":4545:4550   */\n      0x00\n        /* \"#utility.yul\":4594:4597   */\n      dup3\n        /* \"#utility.yul\":4587:4591   */\n      0x1f\n        /* \"#utility.yul\":4579:4585   */\n      dup4\n        /* \"#utility.yul\":4575:4592   */\n      add\n        /* \"#utility.yul\":4571:4598   */\n      slt\n        /* \"#utility.yul\":4561:4683   */\n      tag_151\n      jumpi\n        /* \"#utility.yul\":4602:4681   */\n      tag_152\n      tag_72\n      jump\t// in\n    tag_152:\n        /* \"#utility.yul\":4561:4683   */\n    tag_151:\n        /* \"#utility.yul\":4719:4725   */\n      dup2\n        /* \"#utility.yul\":4706:4726   */\n      calldataload\n        /* \"#utility.yul\":4744:4823   */\n      tag_153\n        /* \"#utility.yul\":4819:4822   */\n      dup5\n        /* \"#utility.yul\":4811:4817   */\n      dup3\n        /* \"#utility.yul\":4804:4808   */\n      0x20\n        /* \"#utility.yul\":4796:4802   */\n      dup7\n        /* \"#utility.yul\":4792:4809   */\n      add\n        /* \"#utility.yul\":4744:4823   */\n      tag_79\n      jump\t// in\n    tag_153:\n        /* \"#utility.yul\":4735:4823   */\n      swap2\n      pop\n        /* \"#utility.yul\":4551:4829   */\n      pop\n        /* \"#utility.yul\":4489:4829   */\n      swap3\n      swap2\n      pop\n      pop\n      jump\t// out\n        /* \"#utility.yul\":4835:5344   */\n    tag_28:\n        /* \"#utility.yul\":4904:4910   */\n      0x00\n        /* \"#utility.yul\":4953:4955   */\n      0x20\n        /* \"#utility.yul\":4941:4950   */\n      dup3\n        /* \"#utility.yul\":4932:4939   */\n      dup5\n        /* \"#utility.yul\":4928:4951   */\n      sub\n        /* \"#utility.yul\":4924:4956   */\n      slt\n        /* \"#utility.yul\":4921:5040   */\n      iszero\n      tag_155\n      jumpi\n        /* \"#utility.yul\":4959:5038   */\n      tag_156\n      tag_63\n      jump\t// in\n    tag_156:\n        /* \"#utility.yul\":4921:5040   */\n    tag_155:\n        /* \"#utility.yul\":5107:5108   */\n      0x00\n        /* \"#utility.yul\":5096:5105   */\n      dup3\n        /* \"#utility.yul\":5092:5109   */\n      add\n        /* \"#utility.yul\":5079:5110   */\n      calldataload\n        /* \"#utility.yul\":5137:5155   */\n      0xffffffffffffffff\n        /* \"#utility.yul\":5129:5135   */\n      dup2\n        /* \"#utility.yul\":5126:5156   */\n      gt\n        /* \"#utility.yul\":5123:5240   */\n      iszero\n      tag_157\n      jumpi\n        /* \"#utility.yul\":5159:5238   */\n      tag_158\n      tag_64\n      jump\t// in\n    tag_158:\n        /* \"#utility.yul\":5123:5240   */\n    tag_157:\n        /* \"#utility.yul\":5264:5327   */\n      tag_159\n        /* \"#utility.yul\":5319:5326   */\n      dup5\n        /* \"#utility.yul\":5310:5316   */\n      dup3\n        /* \"#utility.yul\":5299:5308   */\n      dup6\n        /* \"#utility.yul\":5295:5317   */\n      add\n        /* \"#utility.yul\":5264:5327   */\n      tag_80\n      jump\t// in\n    tag_159:\n        /* \"#utility.yul\":5254:5327   */\n      swap2\n      pop\n        /* \"#utility.yul\":5050:5337   */\n      pop\n        /* \"#utility.yul\":4835:5344   */\n      swap3\n      swap2\n      pop\n      pop\n      jump\t// out\n        /* \"#utility.yul\":5350:6004   */\n    tag_37:\n        /* \"#utility.yul\":5428:5434   */\n      0x00\n        /* \"#utility.yul\":5436:5442   */\n      dup1\n        /* \"#utility.yul\":5485:5487   */\n      0x40\n        /* \"#utility.yul\":5473:5482   */\n      dup4\n        /* \"#utility.yul\":5464:5471   */\n      dup6\n        /* \"#utility.yul\":5460:5483   */\n      sub\n        /* \"#utility.yul\":5456:5488   */\n      slt\n        /* \"#utility.yul\":5453:5572   */\n      iszero\n      tag_161\n      jumpi\n        /* \"#utility.yul\":5491:5570   */\n      tag_162\n      tag_63\n      jump\t// in\n    tag_162:\n        /* \"#utility.yul\":5453:5572   */\n    tag_161:\n        /* \"#utility.yul\":5611:5612   */\n      0x00\n        /* \"#utility.yul\":5636:5689   */\n      tag_163\n        /* \"#utility.yul\":5681:5688   */\n      dup6\n        /* \"#utility.yul\":5672:5678   */\n      dup3\n        /* \"#utility.yul\":5661:5670   */\n      dup7\n        /* \"#utility.yul\":5657:5679   */\n      add\n        /* \"#utility.yul\":5636:5689   */\n      tag_66\n      jump\t// in\n    tag_163:\n        /* \"#utility.yul\":5626:5689   */\n      swap3\n      pop\n        /* \"#utility.yul\":5582:5699   */\n      pop\n        /* \"#utility.yul\":5766:5768   */\n      0x20\n        /* \"#utility.yul\":5755:5764   */\n      dup4\n        /* \"#utility.yul\":5751:5769   */\n      add\n        /* \"#utility.yul\":5738:5770   */\n      calldataload\n        /* \"#utility.yul\":5797:5815   */\n      0xffffffffffffffff\n        /* \"#utility.yul\":5789:5795   */\n      dup2\n        /* \"#utility.yul\":5786:5816   */\n      gt\n        /* \"#utility.yul\":5783:5900   */\n      iszero\n      tag_164\n      jumpi\n        /* \"#utility.yul\":5819:5898   */\n      tag_165\n      tag_64\n      jump\t// in\n    tag_165:\n        /* \"#utility.yul\":5783:5900   */\n    tag_164:\n        /* \"#utility.yul\":5924:5987   */\n      tag_166\n        /* \"#utility.yul\":5979:5986   */\n      dup6\n        /* \"#utility.yul\":5970:5976   */\n      dup3\n        /* \"#utility.yul\":5959:5968   */\n      dup7\n        /* \"#utility.yul\":5955:5977   */\n      add\n        /* \"#utility.yul\":5924:5987   */\n      tag_80\n      jump\t// in\n    tag_166:\n        /* \"#utility.yul\":5914:5987   */\n      swap2\n      pop\n        /* \"#utility.yul\":5709:5997   */\n      pop\n        /* \"#utility.yul\":5350:6004   */\n      swap3\n      pop\n      swap3\n      swap1\n      pop\n      jump\t// out\n        /* \"#utility.yul\":6010:6190   */\n    tag_81:\n        /* \"#utility.yul\":6058:6135   */\n      0x4e487b7100000000000000000000000000000000000000000000000000000000\n        /* \"#utility.yul\":6055:6056   */\n      0x00\n        /* \"#utility.yul\":6048:6136   */\n      mstore\n        /* \"#utility.yul\":6155:6159   */\n      0x22\n        /* \"#utility.yul\":6152:6153   */\n      0x04\n        /* \"#utility.yul\":6145:6160   */\n      mstore\n        /* \"#utility.yul\":6179:6183   */\n      0x24\n        /* \"#utility.yul\":6176:6177   */\n      0x00\n        /* \"#utility.yul\":6169:6184   */\n      revert\n        /* \"#utility.yul\":6196:6516   */\n    tag_42:\n        /* \"#utility.yul\":6240:6246   */\n      0x00\n        /* \"#utility.yul\":6277:6278   */\n      0x02\n        /* \"#utility.yul\":6271:6275   */\n      dup3\n        /* \"#utility.yul\":6267:6279   */\n      div\n        /* \"#utility.yul\":6257:6279   */\n      swap1\n      pop\n        /* \"#utility.yul\":6324:6325   */\n      0x01\n        /* \"#utility.yul\":6318:6322   */\n      dup3\n        /* \"#utility.yul\":6314:6326   */\n      and\n        /* \"#utility.yul\":6345:6363   */\n      dup1\n        /* \"#utility.yul\":6335:6416   */\n      tag_169\n      jumpi\n        /* \"#utility.yul\":6401:6405   */\n      0x7f\n        /* \"#utility.yul\":6393:6399   */\n      dup3\n        /* \"#utility.yul\":6389:6406   */\n      and\n        /* \"#utility.yul\":6379:6406   */\n      swap2\n      pop\n        /* \"#utility.yul\":6335:6416   */\n    tag_169:\n        /* \"#utility.yul\":6463:6465   */\n      0x20\n        /* \"#utility.yul\":6455:6461   */\n      dup3\n        /* \"#utility.yul\":6452:6466   */\n      lt\n        /* \"#utility.yul\":6432:6450   */\n      dup2\n        /* \"#utility.yul\":6429:6467   */\n      sub\n        /* \"#utility.yul\":6426:6510   */\n      tag_170\n      jumpi\n        /* \"#utility.yul\":6482:6500   */\n      tag_171\n      tag_81\n      jump\t// in\n    tag_171:\n        /* \"#utility.yul\":6426:6510   */\n    tag_170:\n        /* \"#utility.yul\":6247:6516   */\n      pop\n        /* \"#utility.yul\":6196:6516   */\n      swap2\n      swap1\n      pop\n      jump\t// out\n        /* \"#utility.yul\":6522:6663   */\n    tag_82:\n        /* \"#utility.yul\":6571:6575   */\n      0x00\n        /* \"#utility.yul\":6594:6597   */\n      dup2\n        /* \"#utility.yul\":6586:6597   */\n      swap1\n      pop\n        /* \"#utility.yul\":6617:6620   */\n      dup2\n        /* \"#utility.yul\":6614:6615   */\n      0x00\n        /* \"#utility.yul\":6607:6621   */\n      mstore\n        /* \"#utility.yul\":6651:6655   */\n      0x20\n        /* \"#utility.yul\":6648:6649   */\n      0x00\n        /* \"#utility.yul\":6638:6656   */\n      keccak256\n        /* \"#utility.yul\":6630:6656   */\n      swap1\n      pop\n        /* \"#utility.yul\":6522:6663   */\n      swap2\n      swap1\n      pop\n      jump\t// out\n        /* \"#utility.yul\":6669:6762   */\n    tag_83:\n        /* \"#utility.yul\":6706:6712   */\n      0x00\n        /* \"#utility.yul\":6753:6755   */\n      0x20\n        /* \"#utility.yul\":6748:6750   */\n      0x1f\n        /* \"#utility.yul\":6741:6746   */\n      dup4\n        /* \"#utility.yul\":6737:6751   */\n      add\n        /* \"#utility.yul\":6733:6756   */\n      div\n        /* \"#utility.yul\":6723:6756   */\n      swap1\n      pop\n        /* \"#utility.yul\":6669:6762   */\n      swap2\n      swap1\n      pop\n      jump\t// out\n        /* \"#utility.yul\":6768:6875   */\n    tag_84:\n        /* \"#utility.yul\":6812:6820   */\n      0x00\n        /* \"#utility.yul\":6862:6867   */\n      dup3\n        /* \"#utility.yul\":6856:6860   */\n      dup3\n        /* \"#utility.yul\":6852:6868   */\n      shl\n        /* \"#utility.yul\":6831:6868   */\n      swap1\n      pop\n        /* \"#utility.yul\":6768:6875   */\n      swap3\n      swap2\n      pop\n      pop\n      jump\t// out\n        /* \"#utility.yul\":6881:7274   */\n    tag_85:\n        /* \"#utility.yul\":6950:6956   */\n      0x00\n        /* \"#utility.yul\":7000:7001   */\n      0x08\n        /* \"#utility.yul\":6988:6998   */\n      dup4\n        /* \"#utility.yul\":6984:7002   */\n      mul\n        /* \"#utility.yul\":7023:7120   */\n      tag_176\n        /* \"#utility.yul\":7053:7119   */\n      0xffffffffffffffffffffffffffffffffffffffffffffffffffffffffffffffff\n        /* \"#utility.yul\":7042:7051   */\n      dup3\n        /* \"#utility.yul\":7023:7120   */\n      tag_84\n      jump\t// in\n    tag_176:\n        /* \"#utility.yul\":7141:7180   */\n      tag_177\n        /* \"#utility.yul\":7171:7179   */\n      dup7\n        /* \"#utility.yul\":7160:7169   */\n      dup4\n        /* \"#utility.yul\":7141:7180   */\n      tag_84\n      jump\t// in\n    tag_177:\n        /* \"#utility.yul\":7129:7180   */\n      swap6\n      pop\n        /* \"#utility.yul\":7213:7217   */\n      dup1\n        /* \"#utility.yul\":7209:7218   */\n      not\n        /* \"#utility.yul\":7202:7207   */\n      dup5\n        /* \"#utility.yul\":7198:7219   */\n      and\n        /* \"#utility.yul\":7189:7219   */\n      swap4\n      pop\n        /* \"#utility.yul\":7262:7266   */\n      dup1\n        /* \"#utility.yul\":7252:7260   */\n      dup7\n        /* \"#utility.yul\":7248:7267   */\n      and\n        /* \"#utility.yul\":7241:7246   */\n      dup5\n        /* \"#utility.yul\":7238:7268   */\n      or\n        /* \"#utility.yul\":7228:7268   */\n      swap3\n      pop\n        /* \"#utility.yul\":6957:7274   */\n      pop\n      pop\n        /* \"#utility.yul\":6881:7274   */\n      swap4\n      swap3\n      pop\n      pop\n      pop\n      jump\t// out\n        /* \"#utility.yul\":7280:7340   */\n    tag_86:\n        /* \"#utility.yul\":7308:7311   */\n      0x00\n        /* \"#utility.yul\":7329:7334   */\n      dup2\n        /* \"#utility.yul\":7322:7334   */\n      swap1\n      pop\n        /* \"#utility.yul\":7280:7340   */\n      swap2\n      swap1\n      pop\n      jump\t// out\n        /* \"#utility.yul\":7346:7488   */\n    tag_87:\n        /* \"#utility.yul\":7396:7405   */\n      0x00\n        /* \"#utility.yul\":7429:7482   */\n      tag_180\n        /* \"#utility.yul\":7447:7481   */\n      tag_181\n        /* \"#utility.yul\":7456:7480   */\n      tag_182\n        /* \"#utility.yul\":7474:7479   */\n      dup5\n        /* \"#utility.yul\":7456:7480   */\n      tag_60\n      jump\t// in\n    tag_182:\n        /* \"#utility.yul\":7447:7481   */\n      tag_86\n      jump\t// in\n    tag_181:\n        /* \"#utility.yul\":7429:7482   */\n      tag_60\n      jump\t// in\n    tag_180:\n        /* \"#utility.yul\":7416:7482   */\n      swap1\n      pop\n        /* \"#utility.yul\":7346:7488   */\n      swap2\n      swap1\n      pop\n      jump\t// out\n        /* \"#utility.yul\":7494:7569   */\n    tag_88:\n        /* \"#utility.yul\":7537:7540   */\n      0x00\n        /* \"#utility.yul\":7558:7563   */\n      dup2\n        /* \"#utility.yul\":7551:7563   */\n      swap1\n      pop\n        /* \"#utility.yul\":7494:7569   */\n      swap2\n      swap1\n      pop\n      jump\t// out\n        /* \"#utility.yul\":7575:7844   */\n    tag_89:\n        /* \"#utility.yul\":7685:7724   */\n      tag_185\n        /* \"#utility.yul\":7716:7723   */\n      dup4\n        /* \"#utility.yul\":7685:7724   */\n      tag_87\n      jump\t// in\n    tag_185:\n        /* \"#utility.yul\":7746:7837   */\n      tag_186\n        /* \"#utility.yul\":7795:7836   */\n      tag_187\n        /* \"#utility.yul\":7819:7835   */\n      dup3\n        /* \"#utility.yul\":7795:7836   */\n      tag_88\n      jump\t// in\n    tag_187:\n        /* \"#utility.yul\":7787:7793   */\n      dup5\n        /* \"#utility.yul\":7780:7784   */\n      dup5\n        /* \"#utility.yul\":7774:7785   */\n      sload\n        /* \"#utility.yul\":7746:7837   */\n      tag_85\n      jump\t// in\n    tag_186:\n        /* \"#utility.yul\":7740:7744   */\n      dup3\n        /* \"#utility.yul\":7733:7838   */\n      sstore\n        /* \"#utility.yul\":7651:7844   */\n      pop\n        /* \"#utility.yul\":7575:7844   */\n      pop\n      pop\n      pop\n      jump\t// out\n        /* \"#utility.yul\":7850:7923   */\n    tag_90:\n        /* \"#utility.yul\":7895:7898   */\n      0x00\n        /* \"#utility.yul\":7850:7923   */\n      swap1\n      jump\t// out\n        /* \"#utility.yul\":7929:8118   */\n    tag_91:\n        /* \"#utility.yul\":8006:8038   */\n      tag_190\n      tag_90\n      jump\t// in\n    tag_190:\n        /* \"#utility.yul\":8047:8112   */\n      tag_191\n        /* \"#utility.yul\":8105:8111   */\n      dup2\n        /* \"#utility.yul\":8097:8103   */\n      dup5\n        /* \"#utility.yul\":8091:8095   */\n      dup5\n        /* \"#utility.yul\":8047:8112   */\n      tag_89\n      jump\t// in\n    tag_191:\n        /* \"#utility.yul\":7982:8118   */\n      pop\n        /* \"#utility.yul\":7929:8118   */\n      pop\n      pop\n      jump\t// out\n        /* \"#utility.yul\":8124:8310   */\n    tag_92:\n        /* \"#utility.yul\":8184:8304   */\n    tag_193:\n        /* \"#utility.yul\":8201:8204   */\n      dup2\n        /* \"#utility.yul\":8194:8199   */\n      dup2\n        /* \"#utility.yul\":8191:8205   */\n      lt\n        /* \"#utility.yul\":8184:8304   */\n      iszero\n      tag_195\n      jumpi\n        /* \"#utility.yul\":8255:8294   */\n      tag_196\n        /* \"#utility.yul\":8292:8293   */\n      0x00\n        /* \"#utility.yul\":8285:8290   */\n      dup3\n        /* \"#utility.yul\":8255:8294   */\n      tag_91\n      jump\t// in\n    tag_196:\n        /* \"#utility.yul\":8228:8229   */\n      0x01\n        /* \"#utility.yul\":8221:8226   */\n      dup2\n        /* \"#utility.yul\":8217:8230   */\n      add\n        /* \"#utility.yul\":8208:8230   */\n      swap1\n      pop\n        /* \"#utility.yul\":8184:8304   */\n      jump(tag_193)\n    tag_195:\n        /* \"#utility.yul\":8124:8310   */\n      pop\n      pop\n      jump\t// out\n        /* \"#utility.yul\":8316:8859   */\n    tag_93:\n        /* \"#utility.yul\":8417:8419   */\n      0x1f\n        /* \"#utility.yul\":8412:8415   */\n      dup3\n        /* \"#utility.yul\":8409:8420   */\n      gt\n        /* \"#utility.yul\":8406:8852   */\n      iszero\n      tag_198\n      jumpi\n        /* \"#utility.yul\":8451:8489   */\n      tag_199\n        /* \"#utility.yul\":8483:8488   */\n      dup2\n        /* \"#utility.yul\":8451:8489   */\n      tag_82\n      jump\t// in\n    tag_199:\n        /* \"#utility.yul\":8535:8564   */\n      tag_200\n        /* \"#utility.yul\":8553:8563   */\n      dup5\n        /* \"#utility.yul\":8535:8564   */\n      tag_83\n      jump\t// in\n    tag_200:\n        /* \"#utility.yul\":8525:8533   */\n      dup2\n        /* \"#utility.yul\":8521:8565   */\n      add\n        /* \"#utility.yul\":8718:8720   */\n      0x20\n        /* \"#utility.yul\":8706:8716   */\n      dup6\n        /* \"#utility.yul\":8703:8721   */\n      lt\n        /* \"#utility.yul\":8700:8749   */\n      iszero\n      tag_201\n      jumpi\n        /* \"#utility.yul\":8739:8747   */\n      dup2\n        /* \"#utility.yul\":8724:8747   */\n      swap1\n      pop\n        /* \"#utility.yul\":8700:8749   */\n    tag_201:\n        /* \"#utility.yul\":8762:8842   */\n      tag_202\n        /* \"#utility.yul\":8818:8840   */\n      tag_203\n        /* \"#utility.yul\":8836:8839   */\n      dup6\n        /* \"#utility.yul\":8818:8840   */\n      tag_83\n      jump\t// in\n    tag_203:\n        /* \"#utility.yul\":8808:8816   */\n      dup4\n        /* \"#utility.yul\":8804:8841   */\n      add\n        /* \"#utility.yul\":8791:8802   */\n      dup3\n        /* \"#utility.yul\":8762:8842   */\n      tag_92\n      jump\t// in\n    tag_202:\n        /* \"#utility.yul\":8421:8852   */\n      pop\n      pop\n        /* \"#utility.yul\":8406:8852   */\n    tag_198:\n        /* \"#utility.yul\":8316:8859   */\n      pop\n      pop\n      pop\n      jump\t// out\n        /* \"#utility.yul\":8865:8982   */\n    tag_94:\n        /* \"#utility.yul\":8919:8927   */\n      0x00\n        /* \"#utility.yul\":8969:8974   */\n      dup3\n        /* \"#utility.yul\":8963:8967   */\n      dup3\n        /* \"#utility.yul\":8959:8975   */\n      shr\n        /* \"#utility.yul\":8938:8975   */\n      swap1\n      pop\n        /* \"#utility.yul\":8865:8982   */\n      swap3\n      swap2\n      pop\n      pop\n      jump\t// out\n        /* \"#utility.yul\":8988:9157   */\n    tag_95:\n        /* \"#utility.yul\":9032:9038   */\n      0x00\n        /* \"#utility.yul\":9065:9116   */\n      tag_206\n        /* \"#utility.yul\":9113:9114   */\n      0x00\n        /* \"#utility.yul\":9109:9115   */\n      not\n        /* \"#utility.yul\":9101:9106   */\n      dup5\n        /* \"#utility.yul\":9098:9099   */\n      0x08\n        /* \"#utility.yul\":9094:9107   */\n      mul\n        /* \"#utility.yul\":9065:9116   */\n      tag_94\n      jump\t// in\n    tag_206:\n        /* \"#utility.yul\":9061:9117   */\n      not\n        /* \"#utility.yul\":9146:9150   */\n      dup1\n        /* \"#utility.yul\":9140:9144   */\n      dup4\n        /* \"#utility.yul\":9136:9151   */\n      and\n        /* \"#utility.yul\":9126:9151   */\n      swap2\n      pop\n        /* \"#utility.yul\":9039:9157   */\n      pop\n        /* \"#utility.yul\":8988:9157   */\n      swap3\n      swap2\n      pop\n      pop\n      jump\t// out\n        /* \"#utility.yul\":9162:9457   */\n    tag_96:\n        /* \"#utility.yul\":9238:9242   */\n      0x00\n        /* \"#utility.yul\":9384:9413   */\n      tag_208\n        /* \"#utility.yul\":9409:9412   */\n      dup4\n        /* \"#utility.yul\":9403:9407   */\n      dup4\n        /* \"#utility.yul\":9384:9413   */\n      tag_95\n      jump\t// in\n    tag_208:\n        /* \"#utility.yul\":9376:9413   */\n      swap2\n      pop\n        /* \"#utility.yul\":9446:9449   */\n      dup3\n        /* \"#utility.yul\":9443:9444   */\n      0x02\n        /* \"#utility.yul\":9439:9450   */\n      mul\n        /* \"#utility.yul\":9433:9437   */\n      dup3\n        /* \"#utility.yul\":9430:9451   */\n      or\n        /* \"#utility.yul\":9422:9451   */\n      swap1\n      pop\n        /* \"#utility.yul\":9162:9457   */\n      swap3\n      swap2\n      pop\n      pop\n      jump\t// out\n        /* \"#utility.yul\":9462:10857   */\n    tag_57:\n        /* \"#utility.yul\":9579:9616   */\n      tag_210\n        /* \"#utility.yul\":9612:9615   */\n      dup3\n        /* \"#utility.yul\":9579:9616   */\n      tag_67\n      jump\t// in\n    tag_210:\n        /* \"#utility.yul\":9681:9699   */\n      0xffffffffffffffff\n        /* \"#utility.yul\":9673:9679   */\n      dup2\n        /* \"#utility.yul\":9670:9700   */\n      gt\n        /* \"#utility.yul\":9667:9723   */\n      iszero\n      tag_211\n      jumpi\n        /* \"#utility.yul\":9703:9721   */\n      tag_212\n      tag_74\n      jump\t// in\n    tag_212:\n        /* \"#utility.yul\":9667:9723   */\n    tag_211:\n        /* \"#utility.yul\":9747:9785   */\n      tag_213\n        /* \"#utility.yul\":9779:9783   */\n      dup3\n        /* \"#utility.yul\":9773:9784   */\n      sload\n        /* \"#utility.yul\":9747:9785   */\n      tag_42\n      jump\t// in\n    tag_213:\n        /* \"#utility.yul\":9832:9899   */\n      tag_214\n        /* \"#utility.yul\":9892:9898   */\n      dup3\n        /* \"#utility.yul\":9884:9890   */\n      dup3\n        /* \"#utility.yul\":9878:9882   */\n      dup6\n        /* \"#utility.yul\":9832:9899   */\n      tag_93\n      jump\t// in\n    tag_214:\n        /* \"#utility.yul\":9926:9927   */\n      0x00\n        /* \"#utility.yul\":9950:9954   */\n      0x20\n        /* \"#utility.yul\":9937:9954   */\n      swap1\n      pop\n        /* \"#utility.yul\":9982:9984   */\n      0x1f\n        /* \"#utility.yul\":9974:9980   */\n      dup4\n        /* \"#utility.yul\":9971:9985   */\n      gt\n        /* \"#utility.yul\":9999:10000   */\n      0x01\n        /* \"#utility.yul\":9994:10612   */\n      dup2\n      eq\n      tag_216\n      jumpi\n        /* \"#utility.yul\":10656:10657   */\n      0x00\n        /* \"#utility.yul\":10673:10679   */\n      dup5\n        /* \"#utility.yul\":10670:10747   */\n      iszero\n      tag_217\n      jumpi\n        /* \"#utility.yul\":10722:10731   */\n      dup3\n        /* \"#utility.yul\":10717:10720   */\n      dup8\n        /* \"#utility.yul\":10713:10732   */\n      add\n        /* \"#utility.yul\":10707:10733   */\n      mload\n        /* \"#utility.yul\":10698:10733   */\n      swap1\n      pop\n        /* \"#utility.yul\":10670:10747   */\n    tag_217:\n        /* \"#utility.yul\":10773:10840   */\n      tag_218\n        /* \"#utility.yul\":10833:10839   */\n      dup6\n        /* \"#utility.yul\":10826:10831   */\n      dup3\n        /* \"#utility.yul\":10773:10840   */\n      tag_96\n      jump\t// in\n    tag_218:\n        /* \"#utility.yul\":10767:10771   */\n      dup7\n        /* \"#utility.yul\":10760:10841   */\n      sstore\n        /* \"#utility.yul\":10629:10851   */\n      pop\n        /* \"#utility.yul\":9964:10851   */\n      jump(tag_215)\n        /* \"#utility.yul\":9994:10612   */\n    tag_216:\n        /* \"#utility.yul\":10046:10050   */\n      0x1f\n        /* \"#utility.yul\":10042:10051   */\n      not\n        /* \"#utility.yul\":10034:10040   */\n      dup5\n        /* \"#utility.yul\":10030:10052   */\n      and\n        /* \"#utility.yul\":10080:10117   */\n      tag_219\n        /* \"#utility.yul\":10112:10116   */\n      dup7\n        /* \"#utility.yul\":10080:10117   */\n      tag_82\n      jump\t// in\n    tag_219:\n        /* \"#utility.yul\":10139:10140   */\n      0x00\n        /* \"#utility.yul\":10153:10361   */\n    tag_220:\n        /* \"#utility.yul\":10167:10174   */\n      dup3\n        /* \"#utility.yul\":10164:10165   */\n      dup2\n        /* \"#utility.yul\":10161:10175   */\n      lt\n        /* \"#utility.yul\":10153:10361   */\n      iszero\n      tag_222\n      jumpi\n        /* \"#utility.yul\":10246:10255   */\n      dup5\n        /* \"#utility.yul\":10241:10244   */\n      dup10\n        /* \"#utility.yul\":10237:10256   */\n      add\n        /* \"#utility.yul\":10231:10257   */\n      mload\n        /* \"#utility.yul\":10223:10229   */\n      dup3\n        /* \"#utility.yul\":10216:10258   */\n      sstore\n        /* \"#utility.yul\":10297:10298   */\n      0x01\n        /* \"#utility.yul\":10289:10295   */\n      dup3\n        /* \"#utility.yul\":10285:10299   */\n      add\n        /* \"#utility.yul\":10275:10299   */\n      swap2\n      pop\n        /* \"#utility.yul\":10344:10346   */\n      0x20\n        /* \"#utility.yul\":10333:10342   */\n      dup6\n        /* \"#utility.yul\":10329:10347   */\n      add\n        /* \"#utility.yul\":10316:10347   */\n      swap5\n      pop\n        /* \"#utility.yul\":10190:10194   */\n      0x20\n        /* \"#utility.yul\":10187:10188   */\n      dup2\n        /* \"#utility.yul\":10183:10195   */\n      add\n        /* \"#utility.yul\":10178:10195   */\n      swap1\n      pop\n        /* \"#utility.yul\":10153:10361   */\n      jump(tag_220)\n    tag_222:\n        /* \"#utility.yul\":10389:10395   */\n      dup7\n        /* \"#utility.yul\":10380:10387   */\n      dup4\n        /* \"#utility.yul\":10377:10396   */\n      lt\n        /* \"#utility.yul\":10374:10553   */\n      iszero\n      tag_223\n      jumpi\n        /* \"#utility.yul\":10447:10456   */\n      dup5\n        /* \"#utility.yul\":10442:10445   */\n      dup10\n        /* \"#utility.yul\":10438:10457   */\n      add\n        /* \"#utility.yul\":10432:10458   */\n      mload\n        /* \"#utility.yul\":10490:10538   */\n      tag_224\n        /* \"#utility.yul\":10532:10536   */\n      0x1f\n        /* \"#utility.yul\":10524:10530   */\n      dup10\n        /* \"#utility.yul\":10520:10537   */\n      and\n        /* \"#utility.yul\":10509:10518   */\n      dup3\n        /* \"#utility.yul\":10490:10538   */\n      tag_95\n      jump\t// in\n    tag_224:\n        /* \"#utility.yul\":10482:10488   */\n      dup4\n        /* \"#utility.yul\":10475:10539   */\n      sstore\n        /* \"#utility.yul\":10397:10553   */\n      pop\n        /* \"#utility.yul\":10374:10553   */\n    tag_223:\n        /* \"#utility.yul\":10599:10600   */\n      0x01\n        /* \"#utility.yul\":10595:10596   */\n      0x02\n        /* \"#utility.yul\":10587:10593   */\n      dup9\n        /* \"#utility.yul\":10583:10597   */\n      mul\n        /* \"#utility.yul\":10579:10601   */\n      add\n        /* \"#utility.yul\":10573:10577   */\n      dup9\n        /* \"#utility.yul\":10566:10602   */\n      sstore\n        /* \"#utility.yul\":10001:10612   */\n      pop\n      pop\n      pop\n        /* \"#utility.yul\":9964:10851   */\n    tag_215:\n      pop\n        /* \"#utility.yul\":9554:10857   */\n      pop\n      pop\n      pop\n        /* \"#utility.yul\":9462:10857   */\n      pop\n      pop\n      jump\t// out\n        /* \"#utility.yul\":10863:11011   */\n    tag_97:\n        /* \"#utility.yul\":10965:10976   */\n      0x00\n        /* \"#utility.yul\":11002:11005   */\n      dup2\n        /* \"#utility.yul\":10987:11005   */\n      swap1\n      pop\n        /* \"#utility.yul\":10863:11011   */\n      swap3\n      swap2\n      pop\n      pop\n      jump\t// out\n        /* \"#utility.yul\":11017:11407   */\n    tag_98:\n        /* \"#utility.yul\":11123:11126   */\n      0x00\n        /* \"#utility.yul\":11151:11190   */\n      tag_227\n        /* \"#utility.yul\":11184:11189   */\n      dup3\n        /* \"#utility.yul\":11151:11190   */\n      tag_67\n      jump\t// in\n    tag_227:\n        /* \"#utility.yul\":11206:11295   */\n      tag_228\n        /* \"#utility.yul\":11288:11294   */\n      dup2\n        /* \"#utility.yul\":11283:11286   */\n      dup6\n        /* \"#utility.yul\":11206:11295   */\n      tag_97\n      jump\t// in\n    tag_228:\n        /* \"#utility.yul\":11199:11295   */\n      swap4\n      pop\n        /* \"#utility.yul\":11304:11369   */\n      tag_229\n        /* \"#utility.yul\":11362:11368   */\n      dup2\n        /* \"#utility.yul\":11357:11360   */\n      dup6\n        /* \"#utility.yul\":11350:11354   */\n      0x20\n        /* \"#utility.yul\":11343:11348   */\n      dup7\n        /* \"#utility.yul\":11339:11355   */\n      add\n        /* \"#utility.yul\":11304:11369   */\n      tag_69\n      jump\t// in\n    tag_229:\n        /* \"#utility.yul\":11394:11400   */\n      dup1\n        /* \"#utility.yul\":11389:11392   */\n      dup5\n        /* \"#utility.yul\":11385:11401   */\n      add\n        /* \"#utility.yul\":11378:11401   */\n      swap2\n      pop\n        /* \"#utility.yul\":11127:11407   */\n      pop\n        /* \"#utility.yul\":11017:11407   */\n      swap3\n      swap2\n      pop\n      pop\n      jump\t// out\n        /* \"#utility.yul\":11413:11688   */\n    tag_59:\n        /* \"#utility.yul\":11545:11548   */\n      0x00\n        /* \"#utility.yul\":11567:11662   */\n      tag_231\n        /* \"#utility.yul\":11658:11661   */\n      dup3\n        /* \"#utility.yul\":11649:11655   */\n      dup5\n        /* \"#utility.yul\":11567:11662   */\n      tag_98\n      jump\t// in\n    tag_231:\n        /* \"#utility.yul\":11560:11662   */\n      swap2\n      pop\n        /* \"#utility.yul\":11679:11682   */\n      dup2\n        /* \"#utility.yul\":11672:11682   */\n      swap1\n      pop\n        /* \"#utility.yul\":11413:11688   */\n      swap3\n      swap2\n      pop\n      pop\n      jump\t// out\n\n    auxdata: 0xa2646970667358221220c879c4075ab6827e555441f55bccc882c89fc634cbb65a74938e8f60d5888a5664736f6c63430008190033\n}\n",
				"bytecode": {
					"linkReferences": {},
					"object": "60806040526040518060400160405280600281526020016040518060400160405280600381526020017f506174000000000000000000000000000000000000000000000000000000000081525081525060025f820151815f0155602082015181600101908161006e91906102bc565b50505034801561007c575f80fd5b5061038b565b5f81519050919050565b7f4e487b71000000000000000000000000000000000000000000000000000000005f52604160045260245ffd5b7f4e487b71000000000000000000000000000000000000000000000000000000005f52602260045260245ffd5b5f60028204905060018216806100fd57607f821691505b6020821081036101105761010f6100b9565b5b50919050565b5f819050815f5260205f209050919050565b5f6020601f8301049050919050565b5f82821b905092915050565b5f600883026101727fffffffffffffffffffffffffffffffffffffffffffffffffffffffffffffffff82610137565b61017c8683610137565b95508019841693508086168417925050509392505050565b5f819050919050565b5f819050919050565b5f6101c06101bb6101b684610194565b61019d565b610194565b9050919050565b5f819050919050565b6101d9836101a6565b6101ed6101e5826101c7565b848454610143565b825550505050565b5f90565b6102016101f5565b61020c8184846101d0565b505050565b5b8181101561022f576102245f826101f9565b600181019050610212565b5050565b601f8211156102745761024581610116565b61024e84610128565b8101602085101561025d578190505b61027161026985610128565b830182610211565b50505b505050565b5f82821c905092915050565b5f6102945f1984600802610279565b1980831691505092915050565b5f6102ac8383610285565b9150826002028217905092915050565b6102c582610082565b67ffffffffffffffff8111156102de576102dd61008c565b5b6102e882546100e6565b6102f3828285610233565b5f60209050601f831160018114610324575f8415610312578287015190505b61031c85826102a1565b865550610383565b601f19841661033286610116565b5f5b8281101561035957848901518255600182019150602085019450602081019050610334565b868310156103765784890151610372601f891682610285565b8355505b6001600288020188555050505b505050505050565b6109d7806103985f395ff3fe608060405234801561000f575f80fd5b506004361061007b575f3560e01c806377ec2b551161005957806377ec2b55146100d75780638bab8dd5146100f65780639e7a13ad14610126578063bc832d4e146101575761007b565b80632e64cec11461007f578063471f7cdf1461009d5780636057361d146100bb575b5f80fd5b610087610173565b604051610094919061039e565b60405180910390f35b6100a561017b565b6040516100b2919061039e565b60405180910390f35b6100d560048036038101906100d091906103f2565b610180565b005b6100df610189565b6040516100ed92919061048d565b60405180910390f35b610110600480360381019061010b91906105e7565b610220565b60405161011d919061039e565b60405180910390f35b610140600480360381019061013b91906103f2565b61024d565b60405161014e92919061048d565b60405180910390f35b610171600480360381019061016c919061062e565b610302565b005b5f8054905090565b5f5481565b805f8190555050565b6002805f01549080600101805461019f906106b5565b80601f01602080910402602001604051908101604052809291908181526020018280546101cb906106b5565b80156102165780601f106101ed57610100808354040283529160200191610216565b820191905f5260205f20905b8154815290600101906020018083116101f957829003601f168201915b5050505050905082565b6001818051602081018201805184825260208301602085012081835280955050505050505f915090505481565b6004818154811061025c575f80fd5b905f5260205f2090600202015f91509050805f015490806001018054610281906106b5565b80601f01602080910402602001604051908101604052809291908181526020018280546102ad906106b5565b80156102f85780601f106102cf576101008083540402835291602001916102f8565b820191905f5260205f20905b8154815290600101906020018083116102db57829003601f168201915b5050505050905082565b6004604051806040016040528084815260200183815250908060018154018082558091505060019003905f5260205f2090600202015f909190919091505f820151815f0155602082015181600101908161035c9190610882565b50505081600182604051610370919061098b565b9081526020016040518091039020819055505050565b5f819050919050565b61039881610386565b82525050565b5f6020820190506103b15f83018461038f565b92915050565b5f604051905090565b5f80fd5b5f80fd5b6103d181610386565b81146103db575f80fd5b50565b5f813590506103ec816103c8565b92915050565b5f60208284031215610407576104066103c0565b5b5f610414848285016103de565b91505092915050565b5f81519050919050565b5f82825260208201905092915050565b8281835e5f83830152505050565b5f601f19601f8301169050919050565b5f61045f8261041d565b6104698185610427565b9350610479818560208601610437565b61048281610445565b840191505092915050565b5f6040820190506104a05f83018561038f565b81810360208301526104b28184610455565b90509392505050565b5f80fd5b5f80fd5b7f4e487b71000000000000000000000000000000000000000000000000000000005f52604160045260245ffd5b6104f982610445565b810181811067ffffffffffffffff82111715610518576105176104c3565b5b80604052505050565b5f61052a6103b7565b905061053682826104f0565b919050565b5f67ffffffffffffffff821115610555576105546104c3565b5b61055e82610445565b9050602081019050919050565b828183375f83830152505050565b5f61058b6105868461053b565b610521565b9050828152602081018484840111156105a7576105a66104bf565b5b6105b284828561056b565b509392505050565b5f82601f8301126105ce576105cd6104bb565b5b81356105de848260208601610579565b91505092915050565b5f602082840312156105fc576105fb6103c0565b5b5f82013567ffffffffffffffff811115610619576106186103c4565b5b610625848285016105ba565b91505092915050565b5f8060408385031215610644576106436103c0565b5b5f610651858286016103de565b925050602083013567ffffffffffffffff811115610672576106716103c4565b5b61067e858286016105ba565b9150509250929050565b7f4e487b71000000000000000000000000000000000000000000000000000000005f52602260045260245ffd5b5f60028204905060018216806106cc57607f821691505b6020821081036106df576106de610688565b5b50919050565b5f819050815f5260205f209050919050565b5f6020601f8301049050919050565b5f82821b905092915050565b5f600883026107417fffffffffffffffffffffffffffffffffffffffffffffffffffffffffffffffff82610706565b61074b8683610706565b95508019841693508086168417925050509392505050565b5f819050919050565b5f61078661078161077c84610386565b610763565b610386565b9050919050565b5f819050919050565b61079f8361076c565b6107b36107ab8261078d565b848454610712565b825550505050565b5f90565b6107c76107bb565b6107d2818484610796565b505050565b5b818110156107f5576107ea5f826107bf565b6001810190506107d8565b5050565b601f82111561083a5761080b816106e5565b610814846106f7565b81016020851015610823578190505b61083761082f856106f7565b8301826107d7565b50505b505050565b5f82821c905092915050565b5f61085a5f198460080261083f565b1980831691505092915050565b5f610872838361084b565b9150826002028217905092915050565b61088b8261041d565b67ffffffffffffffff8111156108a4576108a36104c3565b5b6108ae82546106b5565b6108b98282856107f9565b5f60209050601f8311600181146108ea575f84156108d8578287015190505b6108e28582610867565b865550610949565b601f1984166108f8866106e5565b5f5b8281101561091f578489015182556001820191506020850194506020810190506108fa565b8683101561093c5784890151610938601f89168261084b565b8355505b6001600288020188555050505b505050505050565b5f81905092915050565b5f6109658261041d565b61096f8185610951565b935061097f818560208601610437565b80840191505092915050565b5f610996828461095b565b91508190509291505056fea2646970667358221220c879c4075ab6827e555441f55bccc882c89fc634cbb65a74938e8f60d5888a5664736f6c63430008190033",
					"opcodes": "PUSH1 0x80 PUSH1 0x40 MSTORE PUSH1 0x40 MLOAD DUP1 PUSH1 0x40 ADD PUSH1 0x40 MSTORE DUP1 PUSH1 0x2 DUP2 MSTORE PUSH1 0x20 ADD PUSH1 0x40 MLOAD DUP1 PUSH1 0x40 ADD PUSH1 0x40 MSTORE DUP1 PUSH1 0x3 DUP2 MSTORE PUSH1 0x20 ADD PUSH32 0x5061740000000000000000000000000000000000000000000000000000000000 DUP2 MSTORE POP DUP2 MSTORE POP PUSH1 0x2 PUSH0 DUP3 ADD MLOAD DUP2 PUSH0 ADD SSTORE PUSH1 0x20 DUP3 ADD MLOAD DUP2 PUSH1 0x1 ADD SWAP1 DUP2 PUSH2 0x6E SWAP2 SWAP1 PUSH2 0x2BC JUMP JUMPDEST POP POP POP CALLVALUE DUP1 ISZERO PUSH2 0x7C JUMPI PUSH0 DUP1 REVERT JUMPDEST POP PUSH2 0x38B JUMP JUMPDEST PUSH0 DUP2 MLOAD SWAP1 POP SWAP2 SWAP1 POP JUMP JUMPDEST PUSH32 0x4E487B7100000000000000000000000000000000000000000000000000000000 PUSH0 MSTORE PUSH1 0x41 PUSH1 0x4 MSTORE PUSH1 0x24 PUSH0 REVERT JUMPDEST PUSH32 0x4E487B7100000000000000000000000000000000000000000000000000000000 PUSH0 MSTORE PUSH1 0x22 PUSH1 0x4 MSTORE PUSH1 0x24 PUSH0 REVERT JUMPDEST PUSH0 PUSH1 0x2 DUP3 DIV SWAP1 POP PUSH1 0x1 DUP3 AND DUP1 PUSH2 0xFD JUMPI PUSH1 0x7F DUP3 AND SWAP2 POP JUMPDEST PUSH1 0x20 DUP3 LT DUP2 SUB PUSH2 0x110 JUMPI PUSH2 0x10F PUSH2 0xB9 JUMP JUMPDEST JUMPDEST POP SWAP2 SWAP1 POP JUMP JUMPDEST PUSH0 DUP2 SWAP1 POP DUP2 PUSH0 MSTORE PUSH1 0x20 PUSH0 KECCAK256 SWAP1 POP SWAP2 SWAP1 POP JUMP JUMPDEST PUSH0 PUSH1 0x20 PUSH1 0x1F DUP4 ADD DIV SWAP1 POP SWAP2 SWAP1 POP JUMP JUMPDEST PUSH0 DUP3 DUP3 SHL SWAP1 POP SWAP3 SWAP2 POP POP JUMP JUMPDEST PUSH0 PUSH1 0x8 DUP4 MUL PUSH2 0x172 PUSH32 0xFFFFFFFFFFFFFFFFFFFFFFFFFFFFFFFFFFFFFFFFFFFFFFFFFFFFFFFFFFFFFFFF DUP3 PUSH2 0x137 JUMP JUMPDEST PUSH2 0x17C DUP7 DUP4 PUSH2 0x137 JUMP JUMPDEST SWAP6 POP DUP1 NOT DUP5 AND SWAP4 POP DUP1 DUP7 AND DUP5 OR SWAP3 POP POP POP SWAP4 SWAP3 POP POP POP JUMP JUMPDEST PUSH0 DUP2 SWAP1 POP SWAP2 SWAP1 POP JUMP JUMPDEST PUSH0 DUP2 SWAP1 POP SWAP2 SWAP1 POP JUMP JUMPDEST PUSH0 PUSH2 0x1C0 PUSH2 0x1BB PUSH2 0x1B6 DUP5 PUSH2 0x194 JUMP JUMPDEST PUSH2 0x19D JUMP JUMPDEST PUSH2 0x194 JUMP JUMPDEST SWAP1 POP SWAP2 SWAP1 POP JUMP JUMPDEST PUSH0 DUP2 SWAP1 POP SWAP2 SWAP1 POP JUMP JUMPDEST PUSH2 0x1D9 DUP4 PUSH2 0x1A6 JUMP JUMPDEST PUSH2 0x1ED PUSH2 0x1E5 DUP3 PUSH2 0x1C7 JUMP JUMPDEST DUP5 DUP5 SLOAD PUSH2 0x143 JUMP JUMPDEST DUP3 SSTORE POP POP POP POP JUMP JUMPDEST PUSH0 SWAP1 JUMP JUMPDEST PUSH2 0x201 PUSH2 0x1F5 JUMP JUMPDEST PUSH2 0x20C DUP2 DUP5 DUP5 PUSH2 0x1D0 JUMP JUMPDEST POP POP POP JUMP JUMPDEST JUMPDEST DUP2 DUP2 LT ISZERO PUSH2 0x22F JUMPI PUSH2 0x224 PUSH0 DUP3 PUSH2 0x1F9 JUMP JUMPDEST PUSH1 0x1 DUP2 ADD SWAP1 POP PUSH2 0x212 JUMP JUMPDEST POP POP JUMP JUMPDEST PUSH1 0x1F DUP3 GT ISZERO PUSH2 0x274 JUMPI PUSH2 0x245 DUP2 PUSH2 0x116 JUMP JUMPDEST PUSH2 0x24E DUP5 PUSH2 0x128 JUMP JUMPDEST DUP2 ADD PUSH1 0x20 DUP6 LT ISZERO PUSH2 0x25D JUMPI DUP2 SWAP1 POP JUMPDEST PUSH2 0x271 PUSH2 0x269 DUP6 PUSH2 0x128 JUMP JUMPDEST DUP4 ADD DUP3 PUSH2 0x211 JUMP JUMPDEST POP POP JUMPDEST POP POP POP JUMP JUMPDEST PUSH0 DUP3 DUP3 SHR SWAP1 POP SWAP3 SWAP2 POP POP JUMP JUMPDEST PUSH0 PUSH2 0x294 PUSH0 NOT DUP5 PUSH1 0x8 MUL PUSH2 0x279 JUMP JUMPDEST NOT DUP1 DUP4 AND SWAP2 POP POP SWAP3 SWAP2 POP POP JUMP JUMPDEST PUSH0 PUSH2 0x2AC DUP4 DUP4 PUSH2 0x285 JUMP JUMPDEST SWAP2 POP DUP3 PUSH1 0x2 MUL DUP3 OR SWAP1 POP SWAP3 SWAP2 POP POP JUMP JUMPDEST PUSH2 0x2C5 DUP3 PUSH2 0x82 JUMP JUMPDEST PUSH8 0xFFFFFFFFFFFFFFFF DUP2 GT ISZERO PUSH2 0x2DE JUMPI PUSH2 0x2DD PUSH2 0x8C JUMP JUMPDEST JUMPDEST PUSH2 0x2E8 DUP3 SLOAD PUSH2 0xE6 JUMP JUMPDEST PUSH2 0x2F3 DUP3 DUP3 DUP6 PUSH2 0x233 JUMP JUMPDEST PUSH0 PUSH1 0x20 SWAP1 POP PUSH1 0x1F DUP4 GT PUSH1 0x1 DUP2 EQ PUSH2 0x324 JUMPI PUSH0 DUP5 ISZERO PUSH2 0x312 JUMPI DUP3 DUP8 ADD MLOAD SWAP1 POP JUMPDEST PUSH2 0x31C DUP6 DUP3 PUSH2 0x2A1 JUMP JUMPDEST DUP7 SSTORE POP PUSH2 0x383 JUMP JUMPDEST PUSH1 0x1F NOT DUP5 AND PUSH2 0x332 DUP7 PUSH2 0x116 JUMP JUMPDEST PUSH0 JUMPDEST DUP3 DUP2 LT ISZERO PUSH2 0x359 JUMPI DUP5 DUP10 ADD MLOAD DUP3 SSTORE PUSH1 0x1 DUP3 ADD SWAP2 POP PUSH1 0x20 DUP6 ADD SWAP5 POP PUSH1 0x20 DUP2 ADD SWAP1 POP PUSH2 0x334 JUMP JUMPDEST DUP7 DUP4 LT ISZERO PUSH2 0x376 JUMPI DUP5 DUP10 ADD MLOAD PUSH2 0x372 PUSH1 0x1F DUP10 AND DUP3 PUSH2 0x285 JUMP JUMPDEST DUP4 SSTORE POP JUMPDEST PUSH1 0x1 PUSH1 0x2 DUP9 MUL ADD DUP9 SSTORE POP POP POP JUMPDEST POP POP POP POP POP POP JUMP JUMPDEST PUSH2 0x9D7 DUP1 PUSH2 0x398 PUSH0 CODECOPY PUSH0 RETURN INVALID PUSH1 0x80 PUSH1 0x40 MSTORE CALLVALUE DUP1 ISZERO PUSH2 0xF JUMPI PUSH0 DUP1 REVERT JUMPDEST POP PUSH1 0x4 CALLDATASIZE LT PUSH2 0x7B JUMPI PUSH0 CALLDATALOAD PUSH1 0xE0 SHR DUP1 PUSH4 0x77EC2B55 GT PUSH2 0x59 JUMPI DUP1 PUSH4 0x77EC2B55 EQ PUSH2 0xD7 JUMPI DUP1 PUSH4 0x8BAB8DD5 EQ PUSH2 0xF6 JUMPI DUP1 PUSH4 0x9E7A13AD EQ PUSH2 0x126 JUMPI DUP1 PUSH4 0xBC832D4E EQ PUSH2 0x157 JUMPI PUSH2 0x7B JUMP JUMPDEST DUP1 PUSH4 0x2E64CEC1 EQ PUSH2 0x7F JUMPI DUP1 PUSH4 0x471F7CDF EQ PUSH2 0x9D JUMPI DUP1 PUSH4 0x6057361D EQ PUSH2 0xBB JUMPI JUMPDEST PUSH0 DUP1 REVERT JUMPDEST PUSH2 0x87 PUSH2 0x173 JUMP JUMPDEST PUSH1 0x40 MLOAD PUSH2 0x94 SWAP2 SWAP1 PUSH2 0x39E JUMP JUMPDEST PUSH1 0x40 MLOAD DUP1 SWAP2 SUB SWAP1 RETURN JUMPDEST PUSH2 0xA5 PUSH2 0x17B JUMP JUMPDEST PUSH1 0x40 MLOAD PUSH2 0xB2 SWAP2 SWAP1 PUSH2 0x39E JUMP JUMPDEST PUSH1 0x40 MLOAD DUP1 SWAP2 SUB SWAP1 RETURN JUMPDEST PUSH2 0xD5 PUSH1 0x4 DUP1 CALLDATASIZE SUB DUP2 ADD SWAP1 PUSH2 0xD0 SWAP2 SWAP1 PUSH2 0x3F2 JUMP JUMPDEST PUSH2 0x180 JUMP JUMPDEST STOP JUMPDEST PUSH2 0xDF PUSH2 0x189 JUMP JUMPDEST PUSH1 0x40 MLOAD PUSH2 0xED SWAP3 SWAP2 SWAP1 PUSH2 0x48D JUMP JUMPDEST PUSH1 0x40 MLOAD DUP1 SWAP2 SUB SWAP1 RETURN JUMPDEST PUSH2 0x110 PUSH1 0x4 DUP1 CALLDATASIZE SUB DUP2 ADD SWAP1 PUSH2 0x10B SWAP2 SWAP1 PUSH2 0x5E7 JUMP JUMPDEST PUSH2 0x220 JUMP JUMPDEST PUSH1 0x40 MLOAD PUSH2 0x11D SWAP2 SWAP1 PUSH2 0x39E JUMP JUMPDEST PUSH1 0x40 MLOAD DUP1 SWAP2 SUB SWAP1 RETURN JUMPDEST PUSH2 0x140 PUSH1 0x4 DUP1 CALLDATASIZE SUB DUP2 ADD SWAP1 PUSH2 0x13B SWAP2 SWAP1 PUSH2 0x3F2 JUMP JUMPDEST PUSH2 0x24D JUMP JUMPDEST PUSH1 0x40 MLOAD PUSH2 0x14E SWAP3 SWAP2 SWAP1 PUSH2 0x48D JUMP JUMPDEST PUSH1 0x40 MLOAD DUP1 SWAP2 SUB SWAP1 RETURN JUMPDEST PUSH2 0x171 PUSH1 0x4 DUP1 CALLDATASIZE SUB DUP2 ADD SWAP1 PUSH2 0x16C SWAP2 SWAP1 PUSH2 0x62E JUMP JUMPDEST PUSH2 0x302 JUMP JUMPDEST STOP JUMPDEST PUSH0 DUP1 SLOAD SWAP1 POP SWAP1 JUMP JUMPDEST PUSH0 SLOAD DUP2 JUMP JUMPDEST DUP1 PUSH0 DUP2 SWAP1 SSTORE POP POP JUMP JUMPDEST PUSH1 0x2 DUP1 PUSH0 ADD SLOAD SWAP1 DUP1 PUSH1 0x1 ADD DUP1 SLOAD PUSH2 0x19F SWAP1 PUSH2 0x6B5 JUMP JUMPDEST DUP1 PUSH1 0x1F ADD PUSH1 0x20 DUP1 SWAP2 DIV MUL PUSH1 0x20 ADD PUSH1 0x40 MLOAD SWAP1 DUP2 ADD PUSH1 0x40 MSTORE DUP1 SWAP3 SWAP2 SWAP1 DUP2 DUP2 MSTORE PUSH1 0x20 ADD DUP3 DUP1 SLOAD PUSH2 0x1CB SWAP1 PUSH2 0x6B5 JUMP JUMPDEST DUP1 ISZERO PUSH2 0x216 JUMPI DUP1 PUSH1 0x1F LT PUSH2 0x1ED JUMPI PUSH2 0x100 DUP1 DUP4 SLOAD DIV MUL DUP4 MSTORE SWAP2 PUSH1 0x20 ADD SWAP2 PUSH2 0x216 JUMP JUMPDEST DUP3 ADD SWAP2 SWAP1 PUSH0 MSTORE PUSH1 0x20 PUSH0 KECCAK256 SWAP1 JUMPDEST DUP2 SLOAD DUP2 MSTORE SWAP1 PUSH1 0x1 ADD SWAP1 PUSH1 0x20 ADD DUP1 DUP4 GT PUSH2 0x1F9 JUMPI DUP3 SWAP1 SUB PUSH1 0x1F AND DUP3 ADD SWAP2 JUMPDEST POP POP POP POP POP SWAP1 POP DUP3 JUMP JUMPDEST PUSH1 0x1 DUP2 DUP1 MLOAD PUSH1 0x20 DUP2 ADD DUP3 ADD DUP1 MLOAD DUP5 DUP3 MSTORE PUSH1 0x20 DUP4 ADD PUSH1 0x20 DUP6 ADD KECCAK256 DUP2 DUP4 MSTORE DUP1 SWAP6 POP POP POP POP POP POP PUSH0 SWAP2 POP SWAP1 POP SLOAD DUP2 JUMP JUMPDEST PUSH1 0x4 DUP2 DUP2 SLOAD DUP2 LT PUSH2 0x25C JUMPI PUSH0 DUP1 REVERT JUMPDEST SWAP1 PUSH0 MSTORE PUSH1 0x20 PUSH0 KECCAK256 SWAP1 PUSH1 0x2 MUL ADD PUSH0 SWAP2 POP SWAP1 POP DUP1 PUSH0 ADD SLOAD SWAP1 DUP1 PUSH1 0x1 ADD DUP1 SLOAD PUSH2 0x281 SWAP1 PUSH2 0x6B5 JUMP JUMPDEST DUP1 PUSH1 0x1F ADD PUSH1 0x20 DUP1 SWAP2 DIV MUL PUSH1 0x20 ADD PUSH1 0x40 MLOAD SWAP1 DUP2 ADD PUSH1 0x40 MSTORE DUP1 SWAP3 SWAP2 SWAP1 DUP2 DUP2 MSTORE PUSH1 0x20 ADD DUP3 DUP1 SLOAD PUSH2 0x2AD SWAP1 PUSH2 0x6B5 JUMP JUMPDEST DUP1 ISZERO PUSH2 0x2F8 JUMPI DUP1 PUSH1 0x1F LT PUSH2 0x2CF JUMPI PUSH2 0x100 DUP1 DUP4 SLOAD DIV MUL DUP4 MSTORE SWAP2 PUSH1 0x20 ADD SWAP2 PUSH2 0x2F8 JUMP JUMPDEST DUP3 ADD SWAP2 SWAP1 PUSH0 MSTORE PUSH1 0x20 PUSH0 KECCAK256 SWAP1 JUMPDEST DUP2 SLOAD DUP2 MSTORE SWAP1 PUSH1 0x1 ADD SWAP1 PUSH1 0x20 ADD DUP1 DUP4 GT PUSH2 0x2DB JUMPI DUP3 SWAP1 SUB PUSH1 0x1F AND DUP3 ADD SWAP2 JUMPDEST POP POP POP POP POP SWAP1 POP DUP3 JUMP JUMPDEST PUSH1 0x4 PUSH1 0x40 MLOAD DUP1 PUSH1 0x40 ADD PUSH1 0x40 MSTORE DUP1 DUP5 DUP2 MSTORE PUSH1 0x20 ADD DUP4 DUP2 MSTORE POP SWAP1 DUP1 PUSH1 0x1 DUP2 SLOAD ADD DUP1 DUP3 SSTORE DUP1 SWAP2 POP POP PUSH1 0x1 SWAP1 SUB SWAP1 PUSH0 MSTORE PUSH1 0x20 PUSH0 KECCAK256 SWAP1 PUSH1 0x2 MUL ADD PUSH0 SWAP1 SWAP2 SWAP1 SWAP2 SWAP1 SWAP2 POP PUSH0 DUP3 ADD MLOAD DUP2 PUSH0 ADD SSTORE PUSH1 0x20 DUP3 ADD MLOAD DUP2 PUSH1 0x1 ADD SWAP1 DUP2 PUSH2 0x35C SWAP2 SWAP1 PUSH2 0x882 JUMP JUMPDEST POP POP POP DUP2 PUSH1 0x1 DUP3 PUSH1 0x40 MLOAD PUSH2 0x370 SWAP2 SWAP1 PUSH2 0x98B JUMP JUMPDEST SWAP1 DUP2 MSTORE PUSH1 0x20 ADD PUSH1 0x40 MLOAD DUP1 SWAP2 SUB SWAP1 KECCAK256 DUP2 SWAP1 SSTORE POP POP POP JUMP JUMPDEST PUSH0 DUP2 SWAP1 POP SWAP2 SWAP1 POP JUMP JUMPDEST PUSH2 0x398 DUP2 PUSH2 0x386 JUMP JUMPDEST DUP3 MSTORE POP POP JUMP JUMPDEST PUSH0 PUSH1 0x20 DUP3 ADD SWAP1 POP PUSH2 0x3B1 PUSH0 DUP4 ADD DUP5 PUSH2 0x38F JUMP JUMPDEST SWAP3 SWAP2 POP POP JUMP JUMPDEST PUSH0 PUSH1 0x40 MLOAD SWAP1 POP SWAP1 JUMP JUMPDEST PUSH0 DUP1 REVERT JUMPDEST PUSH0 DUP1 REVERT JUMPDEST PUSH2 0x3D1 DUP2 PUSH2 0x386 JUMP JUMPDEST DUP2 EQ PUSH2 0x3DB JUMPI PUSH0 DUP1 REVERT JUMPDEST POP JUMP JUMPDEST PUSH0 DUP2 CALLDATALOAD SWAP1 POP PUSH2 0x3EC DUP2 PUSH2 0x3C8 JUMP JUMPDEST SWAP3 SWAP2 POP POP JUMP JUMPDEST PUSH0 PUSH1 0x20 DUP3 DUP5 SUB SLT ISZERO PUSH2 0x407 JUMPI PUSH2 0x406 PUSH2 0x3C0 JUMP JUMPDEST JUMPDEST PUSH0 PUSH2 0x414 DUP5 DUP3 DUP6 ADD PUSH2 0x3DE JUMP JUMPDEST SWAP2 POP POP SWAP3 SWAP2 POP POP JUMP JUMPDEST PUSH0 DUP2 MLOAD SWAP1 POP SWAP2 SWAP1 POP JUMP JUMPDEST PUSH0 DUP3 DUP3 MSTORE PUSH1 0x20 DUP3 ADD SWAP1 POP SWAP3 SWAP2 POP POP JUMP JUMPDEST DUP3 DUP2 DUP4 MCOPY PUSH0 DUP4 DUP4 ADD MSTORE POP POP POP JUMP JUMPDEST PUSH0 PUSH1 0x1F NOT PUSH1 0x1F DUP4 ADD AND SWAP1 POP SWAP2 SWAP1 POP JUMP JUMPDEST PUSH0 PUSH2 0x45F DUP3 PUSH2 0x41D JUMP JUMPDEST PUSH2 0x469 DUP2 DUP6 PUSH2 0x427 JUMP JUMPDEST SWAP4 POP PUSH2 0x479 DUP2 DUP6 PUSH1 0x20 DUP7 ADD PUSH2 0x437 JUMP JUMPDEST PUSH2 0x482 DUP2 PUSH2 0x445 JUMP JUMPDEST DUP5 ADD SWAP2 POP POP SWAP3 SWAP2 POP POP JUMP JUMPDEST PUSH0 PUSH1 0x40 DUP3 ADD SWAP1 POP PUSH2 0x4A0 PUSH0 DUP4 ADD DUP6 PUSH2 0x38F JUMP JUMPDEST DUP2 DUP2 SUB PUSH1 0x20 DUP4 ADD MSTORE PUSH2 0x4B2 DUP2 DUP5 PUSH2 0x455 JUMP JUMPDEST SWAP1 POP SWAP4 SWAP3 POP POP POP JUMP JUMPDEST PUSH0 DUP1 REVERT JUMPDEST PUSH0 DUP1 REVERT JUMPDEST PUSH32 0x4E487B7100000000000000000000000000000000000000000000000000000000 PUSH0 MSTORE PUSH1 0x41 PUSH1 0x4 MSTORE PUSH1 0x24 PUSH0 REVERT JUMPDEST PUSH2 0x4F9 DUP3 PUSH2 0x445 JUMP JUMPDEST DUP2 ADD DUP2 DUP2 LT PUSH8 0xFFFFFFFFFFFFFFFF DUP3 GT OR ISZERO PUSH2 0x518 JUMPI PUSH2 0x517 PUSH2 0x4C3 JUMP JUMPDEST JUMPDEST DUP1 PUSH1 0x40 MSTORE POP POP POP JUMP JUMPDEST PUSH0 PUSH2 0x52A PUSH2 0x3B7 JUMP JUMPDEST SWAP1 POP PUSH2 0x536 DUP3 DUP3 PUSH2 0x4F0 JUMP JUMPDEST SWAP2 SWAP1 POP JUMP JUMPDEST PUSH0 PUSH8 0xFFFFFFFFFFFFFFFF DUP3 GT ISZERO PUSH2 0x555 JUMPI PUSH2 0x554 PUSH2 0x4C3 JUMP JUMPDEST JUMPDEST PUSH2 0x55E DUP3 PUSH2 0x445 JUMP JUMPDEST SWAP1 POP PUSH1 0x20 DUP2 ADD SWAP1 POP SWAP2 SWAP1 POP JUMP JUMPDEST DUP3 DUP2 DUP4 CALLDATACOPY PUSH0 DUP4 DUP4 ADD MSTORE POP POP POP JUMP JUMPDEST PUSH0 PUSH2 0x58B PUSH2 0x586 DUP5 PUSH2 0x53B JUMP JUMPDEST PUSH2 0x521 JUMP JUMPDEST SWAP1 POP DUP3 DUP2 MSTORE PUSH1 0x20 DUP2 ADD DUP5 DUP5 DUP5 ADD GT ISZERO PUSH2 0x5A7 JUMPI PUSH2 0x5A6 PUSH2 0x4BF JUMP JUMPDEST JUMPDEST PUSH2 0x5B2 DUP5 DUP3 DUP6 PUSH2 0x56B JUMP JUMPDEST POP SWAP4 SWAP3 POP POP POP JUMP JUMPDEST PUSH0 DUP3 PUSH1 0x1F DUP4 ADD SLT PUSH2 0x5CE JUMPI PUSH2 0x5CD PUSH2 0x4BB JUMP JUMPDEST JUMPDEST DUP2 CALLDATALOAD PUSH2 0x5DE DUP5 DUP3 PUSH1 0x20 DUP7 ADD PUSH2 0x579 JUMP JUMPDEST SWAP2 POP POP SWAP3 SWAP2 POP POP JUMP JUMPDEST PUSH0 PUSH1 0x20 DUP3 DUP5 SUB SLT ISZERO PUSH2 0x5FC JUMPI PUSH2 0x5FB PUSH2 0x3C0 JUMP JUMPDEST JUMPDEST PUSH0 DUP3 ADD CALLDATALOAD PUSH8 0xFFFFFFFFFFFFFFFF DUP2 GT ISZERO PUSH2 0x619 JUMPI PUSH2 0x618 PUSH2 0x3C4 JUMP JUMPDEST JUMPDEST PUSH2 0x625 DUP5 DUP3 DUP6 ADD PUSH2 0x5BA JUMP JUMPDEST SWAP2 POP POP SWAP3 SWAP2 POP POP JUMP JUMPDEST PUSH0 DUP1 PUSH1 0x40 DUP4 DUP6 SUB SLT ISZERO PUSH2 0x644 JUMPI PUSH2 0x643 PUSH2 0x3C0 JUMP JUMPDEST JUMPDEST PUSH0 PUSH2 0x651 DUP6 DUP3 DUP7 ADD PUSH2 0x3DE JUMP JUMPDEST SWAP3 POP POP PUSH1 0x20 DUP4 ADD CALLDATALOAD PUSH8 0xFFFFFFFFFFFFFFFF DUP2 GT ISZERO PUSH2 0x672 JUMPI PUSH2 0x671 PUSH2 0x3C4 JUMP JUMPDEST JUMPDEST PUSH2 0x67E DUP6 DUP3 DUP7 ADD PUSH2 0x5BA JUMP JUMPDEST SWAP2 POP POP SWAP3 POP SWAP3 SWAP1 POP JUMP JUMPDEST PUSH32 0x4E487B7100000000000000000000000000000000000000000000000000000000 PUSH0 MSTORE PUSH1 0x22 PUSH1 0x4 MSTORE PUSH1 0x24 PUSH0 REVERT JUMPDEST PUSH0 PUSH1 0x2 DUP3 DIV SWAP1 POP PUSH1 0x1 DUP3 AND DUP1 PUSH2 0x6CC JUMPI PUSH1 0x7F DUP3 AND SWAP2 POP JUMPDEST PUSH1 0x20 DUP3 LT DUP2 SUB PUSH2 0x6DF JUMPI PUSH2 0x6DE PUSH2 0x688 JUMP JUMPDEST JUMPDEST POP SWAP2 SWAP1 POP JUMP JUMPDEST PUSH0 DUP2 SWAP1 POP DUP2 PUSH0 MSTORE PUSH1 0x20 PUSH0 KECCAK256 SWAP1 POP SWAP2 SWAP1 POP JUMP JUMPDEST PUSH0 PUSH1 0x20 PUSH1 0x1F DUP4 ADD DIV SWAP1 POP SWAP2 SWAP1 POP JUMP JUMPDEST PUSH0 DUP3 DUP3 SHL SWAP1 POP SWAP3 SWAP2 POP POP JUMP JUMPDEST PUSH0 PUSH1 0x8 DUP4 MUL PUSH2 0x741 PUSH32 0xFFFFFFFFFFFFFFFFFFFFFFFFFFFFFFFFFFFFFFFFFFFFFFFFFFFFFFFFFFFFFFFF DUP3 PUSH2 0x706 JUMP JUMPDEST PUSH2 0x74B DUP7 DUP4 PUSH2 0x706 JUMP JUMPDEST SWAP6 POP DUP1 NOT DUP5 AND SWAP4 POP DUP1 DUP7 AND DUP5 OR SWAP3 POP POP POP SWAP4 SWAP3 POP POP POP JUMP JUMPDEST PUSH0 DUP2 SWAP1 POP SWAP2 SWAP1 POP JUMP JUMPDEST PUSH0 PUSH2 0x786 PUSH2 0x781 PUSH2 0x77C DUP5 PUSH2 0x386 JUMP JUMPDEST PUSH2 0x763 JUMP JUMPDEST PUSH2 0x386 JUMP JUMPDEST SWAP1 POP SWAP2 SWAP1 POP JUMP JUMPDEST PUSH0 DUP2 SWAP1 POP SWAP2 SWAP1 POP JUMP JUMPDEST PUSH2 0x79F DUP4 PUSH2 0x76C JUMP JUMPDEST PUSH2 0x7B3 PUSH2 0x7AB DUP3 PUSH2 0x78D JUMP JUMPDEST DUP5 DUP5 SLOAD PUSH2 0x712 JUMP JUMPDEST DUP3 SSTORE POP POP POP POP JUMP JUMPDEST PUSH0 SWAP1 JUMP JUMPDEST PUSH2 0x7C7 PUSH2 0x7BB JUMP JUMPDEST PUSH2 0x7D2 DUP2 DUP5 DUP5 PUSH2 0x796 JUMP JUMPDEST POP POP POP JUMP JUMPDEST JUMPDEST DUP2 DUP2 LT ISZERO PUSH2 0x7F5 JUMPI PUSH2 0x7EA PUSH0 DUP3 PUSH2 0x7BF JUMP JUMPDEST PUSH1 0x1 DUP2 ADD SWAP1 POP PUSH2 0x7D8 JUMP JUMPDEST POP POP JUMP JUMPDEST PUSH1 0x1F DUP3 GT ISZERO PUSH2 0x83A JUMPI PUSH2 0x80B DUP2 PUSH2 0x6E5 JUMP JUMPDEST PUSH2 0x814 DUP5 PUSH2 0x6F7 JUMP JUMPDEST DUP2 ADD PUSH1 0x20 DUP6 LT ISZERO PUSH2 0x823 JUMPI DUP2 SWAP1 POP JUMPDEST PUSH2 0x837 PUSH2 0x82F DUP6 PUSH2 0x6F7 JUMP JUMPDEST DUP4 ADD DUP3 PUSH2 0x7D7 JUMP JUMPDEST POP POP JUMPDEST POP POP POP JUMP JUMPDEST PUSH0 DUP3 DUP3 SHR SWAP1 POP SWAP3 SWAP2 POP POP JUMP JUMPDEST PUSH0 PUSH2 0x85A PUSH0 NOT DUP5 PUSH1 0x8 MUL PUSH2 0x83F JUMP JUMPDEST NOT DUP1 DUP4 AND SWAP2 POP POP SWAP3 SWAP2 POP POP JUMP JUMPDEST PUSH0 PUSH2 0x872 DUP4 DUP4 PUSH2 0x84B JUMP JUMPDEST SWAP2 POP DUP3 PUSH1 0x2 MUL DUP3 OR SWAP1 POP SWAP3 SWAP2 POP POP JUMP JUMPDEST PUSH2 0x88B DUP3 PUSH2 0x41D JUMP JUMPDEST PUSH8 0xFFFFFFFFFFFFFFFF DUP2 GT ISZERO PUSH2 0x8A4 JUMPI PUSH2 0x8A3 PUSH2 0x4C3 JUMP JUMPDEST JUMPDEST PUSH2 0x8AE DUP3 SLOAD PUSH2 0x6B5 JUMP JUMPDEST PUSH2 0x8B9 DUP3 DUP3 DUP6 PUSH2 0x7F9 JUMP JUMPDEST PUSH0 PUSH1 0x20 SWAP1 POP PUSH1 0x1F DUP4 GT PUSH1 0x1 DUP2 EQ PUSH2 0x8EA JUMPI PUSH0 DUP5 ISZERO PUSH2 0x8D8 JUMPI DUP3 DUP8 ADD MLOAD SWAP1 POP JUMPDEST PUSH2 0x8E2 DUP6 DUP3 PUSH2 0x867 JUMP JUMPDEST DUP7 SSTORE POP PUSH2 0x949 JUMP JUMPDEST PUSH1 0x1F NOT DUP5 AND PUSH2 0x8F8 DUP7 PUSH2 0x6E5 JUMP JUMPDEST PUSH0 JUMPDEST DUP3 DUP2 LT ISZERO PUSH2 0x91F JUMPI DUP5 DUP10 ADD MLOAD DUP3 SSTORE PUSH1 0x1 DUP3 ADD SWAP2 POP PUSH1 0x20 DUP6 ADD SWAP5 POP PUSH1 0x20 DUP2 ADD SWAP1 POP PUSH2 0x8FA JUMP JUMPDEST DUP7 DUP4 LT ISZERO PUSH2 0x93C JUMPI DUP5 DUP10 ADD MLOAD PUSH2 0x938 PUSH1 0x1F DUP10 AND DUP3 PUSH2 0x84B JUMP JUMPDEST DUP4 SSTORE POP JUMPDEST PUSH1 0x1 PUSH1 0x2 DUP9 MUL ADD DUP9 SSTORE POP POP POP JUMPDEST POP POP POP POP POP POP JUMP JUMPDEST PUSH0 DUP2 SWAP1 POP SWAP3 SWAP2 POP POP JUMP JUMPDEST PUSH0 PUSH2 0x965 DUP3 PUSH2 0x41D JUMP JUMPDEST PUSH2 0x96F DUP2 DUP6 PUSH2 0x951 JUMP JUMPDEST SWAP4 POP PUSH2 0x97F DUP2 DUP6 PUSH1 0x20 DUP7 ADD PUSH2 0x437 JUMP JUMPDEST DUP1 DUP5 ADD SWAP2 POP POP SWAP3 SWAP2 POP POP JUMP JUMPDEST PUSH0 PUSH2 0x996 DUP3 DUP5 PUSH2 0x95B JUMP JUMPDEST SWAP2 POP DUP2 SWAP1 POP SWAP3 SWAP2 POP POP JUMP INVALID LOG2 PUSH5 0x6970667358 0x22 SLT KECCAK256 0xC8 PUSH26 0xC4075AB6827E555441F55BCCC882C89FC634CBB65A74938E8F60 0xD5 DUP9 DUP11 JUMP PUSH5 0x736F6C6343 STOP ADDMOD NOT STOP CALLER "
				},
				"gasEstimates": {
					"creation": {
						"codeDepositCost": "503800",
						"executionCost": "infinite",
						"totalCost": "infinite"
					},
					"external": {
						"addPerson(uint256,string)": "infinite",
						"favoriteNumber()": "2447",
						"nameToFavoriteNumber(string)": "infinite",
						"people(uint256)": "infinite",
						"person()": "infinite",
						"retrieve()": "2433",
						"store(uint256)": "22559"
					}
				},
				"methodIdentifiers": {
					"addPerson(uint256,string)": "bc832d4e",
					"favoriteNumber()": "471f7cdf",
					"nameToFavoriteNumber(string)": "8bab8dd5",
					"people(uint256)": "9e7a13ad",
					"person()": "77ec2b55",
					"retrieve()": "2e64cec1",
					"store(uint256)": "6057361d"
				}
			},
			"storageLayout": {
				"storage": [
					{
						"astId": 3,
						"contract": "contracts/SimpleStorage.sol:SimpleStorage",
						"label": "favoriteNumber",
						"offset": 0,
						"slot": "0",
						"type": "t_uint256"
					},
					{
						"astId": 7,
						"contract": "contracts/SimpleStorage.sol:SimpleStorage",
						"label": "nameToFavoriteNumber",
						"offset": 0,
						"slot": "1",
						"type": "t_mapping(t_string_memory_ptr,t_uint256)"
					},
					{
						"astId": 19,
						"contract": "contracts/SimpleStorage.sol:SimpleStorage",
						"label": "person",
						"offset": 0,
						"slot": "2",
						"type": "t_struct(People)12_storage"
					},
					{
						"astId": 23,
						"contract": "contracts/SimpleStorage.sol:SimpleStorage",
						"label": "people",
						"offset": 0,
						"slot": "4",
						"type": "t_array(t_struct(People)12_storage)dyn_storage"
					}
				],
				"types": {
					"t_array(t_struct(People)12_storage)dyn_storage": {
						"base": "t_struct(People)12_storage",
						"encoding": "dynamic_array",
						"label": "struct SimpleStorage.People[]",
						"numberOfBytes": "32"
					},
					"t_mapping(t_string_memory_ptr,t_uint256)": {
						"encoding": "mapping",
						"key": "t_string_memory_ptr",
						"label": "mapping(string => uint256)",
						"numberOfBytes": "32",
						"value": "t_uint256"
					},
					"t_string_memory_ptr": {
						"encoding": "bytes",
						"label": "string",
						"numberOfBytes": "32"
					},
					"t_string_storage": {
						"encoding": "bytes",
						"label": "string",
						"numberOfBytes": "32"
					},
					"t_struct(People)12_storage": {
						"encoding": "inplace",
						"label": "struct SimpleStorage.People",
						"members": [
							{
								"astId": 9,
								"contract": "contracts/SimpleStorage.sol:SimpleStorage",
								"label": "favoriteNumber",
								"offset": 0,
								"slot": "0",
								"type": "t_uint256"
							},
							{
								"astId": 11,
								"contract": "contracts/SimpleStorage.sol:SimpleStorage",
								"label": "name",
								"offset": 0,
								"slot": "1",
								"type": "t_string_storage"
							}
						],
						"numberOfBytes": "64"
					},
					"t_uint256": {
						"encoding": "inplace",
						"label": "uint256",
						"numberOfBytes": "32"
					}
				}
			},
			"userdoc": {
				"kind": "user",
				"methods": {},
				"version": 1
			}
		}
	}
}